{
  "contractName": "ArtNFT",
  "abi": [
    {
      "inputs": [],
      "stateMutability": "nonpayable",
      "type": "constructor"
    },
    {
      "anonymous": false,
      "inputs": [
        {
          "indexed": true,
          "internalType": "address",
          "name": "owner",
          "type": "address"
        },
        {
          "indexed": true,
          "internalType": "address",
          "name": "approved",
          "type": "address"
        },
        {
          "indexed": true,
          "internalType": "uint256",
          "name": "tokenId",
          "type": "uint256"
        }
      ],
      "name": "Approval",
      "type": "event"
    },
    {
      "anonymous": false,
      "inputs": [
        {
          "indexed": true,
          "internalType": "address",
          "name": "owner",
          "type": "address"
        },
        {
          "indexed": true,
          "internalType": "address",
          "name": "operator",
          "type": "address"
        },
        {
          "indexed": false,
          "internalType": "bool",
          "name": "approved",
          "type": "bool"
        }
      ],
      "name": "ApprovalForAll",
      "type": "event"
    },
    {
      "anonymous": false,
      "inputs": [
        {
          "indexed": false,
          "internalType": "uint256",
          "name": "tokenId",
          "type": "uint256"
        },
        {
          "indexed": false,
          "internalType": "string",
          "name": "tokenUri",
          "type": "string"
        }
      ],
      "name": "ArtNFTMinted",
      "type": "event"
    },
    {
      "anonymous": false,
      "inputs": [
        {
          "indexed": true,
          "internalType": "address",
          "name": "previousOwner",
          "type": "address"
        },
        {
          "indexed": true,
          "internalType": "address",
          "name": "newOwner",
          "type": "address"
        }
      ],
      "name": "OwnershipTransferred",
      "type": "event"
    },
    {
      "anonymous": false,
      "inputs": [
        {
          "indexed": true,
          "internalType": "address",
          "name": "from",
          "type": "address"
        },
        {
          "indexed": true,
          "internalType": "address",
          "name": "to",
          "type": "address"
        },
        {
          "indexed": true,
          "internalType": "uint256",
          "name": "tokenId",
          "type": "uint256"
        }
      ],
      "name": "Transfer",
      "type": "event"
    },
    {
      "inputs": [
        {
          "internalType": "address",
          "name": "to",
          "type": "address"
        },
        {
          "internalType": "uint256",
          "name": "tokenId",
          "type": "uint256"
        }
      ],
      "name": "approve",
      "outputs": [],
      "stateMutability": "nonpayable",
      "type": "function"
    },
    {
      "inputs": [
        {
          "internalType": "address",
          "name": "owner",
          "type": "address"
        }
      ],
      "name": "balanceOf",
      "outputs": [
        {
          "internalType": "uint256",
          "name": "",
          "type": "uint256"
        }
      ],
      "stateMutability": "view",
      "type": "function"
    },
    {
      "inputs": [
        {
          "internalType": "uint256",
          "name": "tokenId",
          "type": "uint256"
        }
      ],
      "name": "getApproved",
      "outputs": [
        {
          "internalType": "address",
          "name": "",
          "type": "address"
        }
      ],
      "stateMutability": "view",
      "type": "function"
    },
    {
      "inputs": [
        {
          "internalType": "address",
          "name": "owner",
          "type": "address"
        },
        {
          "internalType": "address",
          "name": "operator",
          "type": "address"
        }
      ],
      "name": "isApprovedForAll",
      "outputs": [
        {
          "internalType": "bool",
          "name": "",
          "type": "bool"
        }
      ],
      "stateMutability": "view",
      "type": "function"
    },
    {
      "inputs": [],
      "name": "name",
      "outputs": [
        {
          "internalType": "string",
          "name": "",
          "type": "string"
        }
      ],
      "stateMutability": "view",
      "type": "function"
    },
    {
      "inputs": [],
      "name": "owner",
      "outputs": [
        {
          "internalType": "address",
          "name": "",
          "type": "address"
        }
      ],
      "stateMutability": "view",
      "type": "function"
    },
    {
      "inputs": [
        {
          "internalType": "uint256",
          "name": "tokenId",
          "type": "uint256"
        }
      ],
      "name": "ownerOf",
      "outputs": [
        {
          "internalType": "address",
          "name": "",
          "type": "address"
        }
      ],
      "stateMutability": "view",
      "type": "function"
    },
    {
      "inputs": [],
      "name": "renounceOwnership",
      "outputs": [],
      "stateMutability": "nonpayable",
      "type": "function"
    },
    {
      "inputs": [
        {
          "internalType": "address",
          "name": "from",
          "type": "address"
        },
        {
          "internalType": "address",
          "name": "to",
          "type": "address"
        },
        {
          "internalType": "uint256",
          "name": "tokenId",
          "type": "uint256"
        }
      ],
      "name": "safeTransferFrom",
      "outputs": [],
      "stateMutability": "nonpayable",
      "type": "function"
    },
    {
      "inputs": [
        {
          "internalType": "address",
          "name": "from",
          "type": "address"
        },
        {
          "internalType": "address",
          "name": "to",
          "type": "address"
        },
        {
          "internalType": "uint256",
          "name": "tokenId",
          "type": "uint256"
        },
        {
          "internalType": "bytes",
          "name": "_data",
          "type": "bytes"
        }
      ],
      "name": "safeTransferFrom",
      "outputs": [],
      "stateMutability": "nonpayable",
      "type": "function"
    },
    {
      "inputs": [
        {
          "internalType": "address",
          "name": "operator",
          "type": "address"
        },
        {
          "internalType": "bool",
          "name": "approved",
          "type": "bool"
        }
      ],
      "name": "setApprovalForAll",
      "outputs": [],
      "stateMutability": "nonpayable",
      "type": "function"
    },
    {
      "inputs": [
        {
          "internalType": "bytes4",
          "name": "interfaceId",
          "type": "bytes4"
        }
      ],
      "name": "supportsInterface",
      "outputs": [
        {
          "internalType": "bool",
          "name": "",
          "type": "bool"
        }
      ],
      "stateMutability": "view",
      "type": "function"
    },
    {
      "inputs": [],
      "name": "symbol",
      "outputs": [
        {
          "internalType": "string",
          "name": "",
          "type": "string"
        }
      ],
      "stateMutability": "view",
      "type": "function"
    },
    {
      "inputs": [
        {
          "internalType": "address",
          "name": "from",
          "type": "address"
        },
        {
          "internalType": "address",
          "name": "to",
          "type": "address"
        },
        {
          "internalType": "uint256",
          "name": "tokenId",
          "type": "uint256"
        }
      ],
      "name": "transferFrom",
      "outputs": [],
      "stateMutability": "nonpayable",
      "type": "function"
    },
    {
      "inputs": [
        {
          "internalType": "address",
          "name": "newOwner",
          "type": "address"
        }
      ],
      "name": "transferOwnership",
      "outputs": [],
      "stateMutability": "nonpayable",
      "type": "function"
    },
    {
      "inputs": [
        {
          "internalType": "string",
          "name": "tokenUri",
          "type": "string"
        }
      ],
      "name": "createToken",
      "outputs": [
        {
          "internalType": "uint256",
          "name": "",
          "type": "uint256"
        }
      ],
      "stateMutability": "nonpayable",
      "type": "function"
    },
    {
      "inputs": [],
      "name": "getCurrentTokenId",
      "outputs": [
        {
          "internalType": "uint256",
          "name": "",
          "type": "uint256"
        }
      ],
      "stateMutability": "view",
      "type": "function"
    },
    {
      "inputs": [
        {
          "internalType": "uint256",
          "name": "tokenId",
          "type": "uint256"
        }
      ],
      "name": "tokenURI",
      "outputs": [
        {
          "internalType": "string",
          "name": "",
          "type": "string"
        }
      ],
      "stateMutability": "view",
      "type": "function"
    },
    {
      "inputs": [],
      "name": "getContractDate",
      "outputs": [
        {
          "internalType": "uint256",
          "name": "",
          "type": "uint256"
        }
      ],
      "stateMutability": "view",
      "type": "function"
    }
  ],
  "bytecode": "0x60806040523480156200001157600080fd5b506040518060400160405280600681526020017f4172744e465400000000000000000000000000000000000000000000000000008152506040518060400160405280600381526020017f4141540000000000000000000000000000000000000000000000000000000000815250816000908051906020019062000096929190620001e7565b508060019080519060200190620000af929190620001e7565b505050620000d2620000c66200011960201b60201c565b6200012160201b60201c565b33600960006101000a81548173ffffffffffffffffffffffffffffffffffffffff021916908373ffffffffffffffffffffffffffffffffffffffff160217905550620002fc565b600033905090565b6000600760009054906101000a900473ffffffffffffffffffffffffffffffffffffffff16905081600760006101000a81548173ffffffffffffffffffffffffffffffffffffffff021916908373ffffffffffffffffffffffffffffffffffffffff1602179055508173ffffffffffffffffffffffffffffffffffffffff168173ffffffffffffffffffffffffffffffffffffffff167f8be0079c531659141344cd1fd0a4f28419497f9722a3daafe3b4186f6b6457e060405160405180910390a35050565b828054620001f59062000297565b90600052602060002090601f01602090048101928262000219576000855562000265565b82601f106200023457805160ff191683800117855562000265565b8280016001018555821562000265579182015b828111156200026457825182559160200191906001019062000247565b5b50905062000274919062000278565b5090565b5b808211156200029357600081600090555060010162000279565b5090565b60006002820490506001821680620002b057607f821691505b60208210811415620002c757620002c6620002cd565b5b50919050565b7f4e487b7100000000000000000000000000000000000000000000000000000000600052602260045260246000fd5b6130ed806200030c6000396000f3fe608060405234801561001057600080fd5b50600436106101215760003560e01c80636352211e116100ad578063a22cb46511610071578063a22cb4651461030a578063b88d4fde14610326578063c87b56dd14610342578063e985e9c514610372578063f2fde38b146103a257610121565b80636352211e1461026457806370a0823114610294578063715018a6146102c45780638da5cb5b146102ce57806395d89b41146102ec57610121565b806323b872dd116100f457806323b872dd146101c057806342842e0e146101dc57806345576f94146101f8578063554f4fc314610228578063561892361461024657610121565b806301ffc9a71461012657806306fdde0314610156578063081812fc14610174578063095ea7b3146101a4575b600080fd5b610140600480360381019061013b919061202b565b6103be565b60405161014d91906124b8565b60405180910390f35b61015e6104a0565b60405161016b91906124d3565b60405180910390f35b61018e600480360381019061018991906120be565b610532565b60405161019b9190612451565b60405180910390f35b6101be60048036038101906101b99190611fef565b6105b7565b005b6101da60048036038101906101d59190611ee9565b6106cf565b005b6101f660048036038101906101f19190611ee9565b61072f565b005b610212600480360381019061020d919061207d565b61074f565b60405161021f9190612735565b60405180910390f35b610230610868565b60405161023d9190612735565b60405180910390f35b61024e610875565b60405161025b9190612735565b60405180910390f35b61027e600480360381019061027991906120be565b610886565b60405161028b9190612451565b60405180910390f35b6102ae60048036038101906102a99190611e84565b610938565b6040516102bb9190612735565b60405180910390f35b6102cc6109f0565b005b6102d6610a78565b6040516102e39190612451565b60405180910390f35b6102f4610aa2565b60405161030191906124d3565b60405180910390f35b610324600480360381019061031f9190611fb3565b610b34565b005b610340600480360381019061033b9190611f38565b610b4a565b005b61035c600480360381019061035791906120be565b610bac565b60405161036991906124d3565b60405180910390f35b61038c60048036038101906103879190611ead565b610bbe565b60405161039991906124b8565b60405180910390f35b6103bc60048036038101906103b79190611e84565b610c52565b005b60007f80ac58cd000000000000000000000000000000000000000000000000000000007bffffffffffffffffffffffffffffffffffffffffffffffffffffffff1916827bffffffffffffffffffffffffffffffffffffffffffffffffffffffff1916148061048957507f5b5e139f000000000000000000000000000000000000000000000000000000007bffffffffffffffffffffffffffffffffffffffffffffffffffffffff1916827bffffffffffffffffffffffffffffffffffffffffffffffffffffffff1916145b80610499575061049882610d4a565b5b9050919050565b6060600080546104af906129bb565b80601f01602080910402602001604051908101604052809291908181526020018280546104db906129bb565b80156105285780601f106104fd57610100808354040283529160200191610528565b820191906000526020600020905b81548152906001019060200180831161050b57829003601f168201915b5050505050905090565b600061053d82610db4565b61057c576040517f08c379a000000000000000000000000000000000000000000000000000000000815260040161057390612695565b60405180910390fd5b6004600083815260200190815260200160002060009054906101000a900473ffffffffffffffffffffffffffffffffffffffff169050919050565b60006105c282610886565b90508073ffffffffffffffffffffffffffffffffffffffff168373ffffffffffffffffffffffffffffffffffffffff161415610633576040517f08c379a000000000000000000000000000000000000000000000000000000000815260040161062a906126f5565b60405180910390fd5b8073ffffffffffffffffffffffffffffffffffffffff16610652610e20565b73ffffffffffffffffffffffffffffffffffffffff16148061068157506106808161067b610e20565b610bbe565b5b6106c0576040517f08c379a00000000000000000000000000000000000000000000000000000000081526004016106b7906125d5565b60405180910390fd5b6106ca8383610e28565b505050565b6106e06106da610e20565b82610ee1565b61071f576040517f08c379a000000000000000000000000000000000000000000000000000000000815260040161071690612715565b60405180910390fd5b61072a838383610fbf565b505050565b61074a83838360405180602001604052806000815250610b4a565b505050565b6000610759610e20565b73ffffffffffffffffffffffffffffffffffffffff16610777610a78565b73ffffffffffffffffffffffffffffffffffffffff16146107cd576040517f08c379a00000000000000000000000000000000000000000000000000000000081526004016107c4906126b5565b60405180910390fd5b6107d76008611226565b60006107e3600861123c565b90506107ef338261124a565b6107f98184611424565b610826600960009054906101000a900473ffffffffffffffffffffffffffffffffffffffff166001610b34565b7fe0ec5304c43239a43f111c4ec7133b19dfd0288292094dd69ecd4406b072ec888184604051610857929190612750565b60405180910390a180915050919050565b6000804290508091505090565b6000610881600861123c565b905090565b6000806002600084815260200190815260200160002060009054906101000a900473ffffffffffffffffffffffffffffffffffffffff169050600073ffffffffffffffffffffffffffffffffffffffff168173ffffffffffffffffffffffffffffffffffffffff16141561092f576040517f08c379a000000000000000000000000000000000000000000000000000000000815260040161092690612615565b60405180910390fd5b80915050919050565b60008073ffffffffffffffffffffffffffffffffffffffff168273ffffffffffffffffffffffffffffffffffffffff1614156109a9576040517f08c379a00000000000000000000000000000000000000000000000000000000081526004016109a0906125f5565b60405180910390fd5b600360008373ffffffffffffffffffffffffffffffffffffffff1673ffffffffffffffffffffffffffffffffffffffff168152602001908152602001600020549050919050565b6109f8610e20565b73ffffffffffffffffffffffffffffffffffffffff16610a16610a78565b73ffffffffffffffffffffffffffffffffffffffff1614610a6c576040517f08c379a0000000000000000000000000000000000000000000000000000000008152600401610a63906126b5565b60405180910390fd5b610a766000611498565b565b6000600760009054906101000a900473ffffffffffffffffffffffffffffffffffffffff16905090565b606060018054610ab1906129bb565b80601f0160208091040260200160405190810160405280929190818152602001828054610add906129bb565b8015610b2a5780601f10610aff57610100808354040283529160200191610b2a565b820191906000526020600020905b815481529060010190602001808311610b0d57829003601f168201915b5050505050905090565b610b46610b3f610e20565b838361155e565b5050565b610b5b610b55610e20565b83610ee1565b610b9a576040517f08c379a0000000000000000000000000000000000000000000000000000000008152600401610b9190612715565b60405180910390fd5b610ba6848484846116cb565b50505050565b6060610bb782611727565b9050919050565b6000600560008473ffffffffffffffffffffffffffffffffffffffff1673ffffffffffffffffffffffffffffffffffffffff16815260200190815260200160002060008373ffffffffffffffffffffffffffffffffffffffff1673ffffffffffffffffffffffffffffffffffffffff16815260200190815260200160002060009054906101000a900460ff16905092915050565b610c5a610e20565b73ffffffffffffffffffffffffffffffffffffffff16610c78610a78565b73ffffffffffffffffffffffffffffffffffffffff1614610cce576040517f08c379a0000000000000000000000000000000000000000000000000000000008152600401610cc5906126b5565b60405180910390fd5b600073ffffffffffffffffffffffffffffffffffffffff168173ffffffffffffffffffffffffffffffffffffffff161415610d3e576040517f08c379a0000000000000000000000000000000000000000000000000000000008152600401610d3590612515565b60405180910390fd5b610d4781611498565b50565b60007f01ffc9a7000000000000000000000000000000000000000000000000000000007bffffffffffffffffffffffffffffffffffffffffffffffffffffffff1916827bffffffffffffffffffffffffffffffffffffffffffffffffffffffff1916149050919050565b60008073ffffffffffffffffffffffffffffffffffffffff166002600084815260200190815260200160002060009054906101000a900473ffffffffffffffffffffffffffffffffffffffff1673ffffffffffffffffffffffffffffffffffffffff1614159050919050565b600033905090565b816004600083815260200190815260200160002060006101000a81548173ffffffffffffffffffffffffffffffffffffffff021916908373ffffffffffffffffffffffffffffffffffffffff160217905550808273ffffffffffffffffffffffffffffffffffffffff16610e9b83610886565b73ffffffffffffffffffffffffffffffffffffffff167f8c5be1e5ebec7d5bd14f71427d1e84f3dd0314c0f7b2291e5b200ac8c7c3b92560405160405180910390a45050565b6000610eec82610db4565b610f2b576040517f08c379a0000000000000000000000000000000000000000000000000000000008152600401610f22906125b5565b60405180910390fd5b6000610f3683610886565b90508073ffffffffffffffffffffffffffffffffffffffff168473ffffffffffffffffffffffffffffffffffffffff161480610fa557508373ffffffffffffffffffffffffffffffffffffffff16610f8d84610532565b73ffffffffffffffffffffffffffffffffffffffff16145b80610fb65750610fb58185610bbe565b5b91505092915050565b8273ffffffffffffffffffffffffffffffffffffffff16610fdf82610886565b73ffffffffffffffffffffffffffffffffffffffff1614611035576040517f08c379a000000000000000000000000000000000000000000000000000000000815260040161102c90612535565b60405180910390fd5b600073ffffffffffffffffffffffffffffffffffffffff168273ffffffffffffffffffffffffffffffffffffffff1614156110a5576040517f08c379a000000000000000000000000000000000000000000000000000000000815260040161109c90612575565b60405180910390fd5b6110b0838383611879565b6110bb600082610e28565b6001600360008573ffffffffffffffffffffffffffffffffffffffff1673ffffffffffffffffffffffffffffffffffffffff168152602001908152602001600020600082825461110b91906128d1565b925050819055506001600360008473ffffffffffffffffffffffffffffffffffffffff1673ffffffffffffffffffffffffffffffffffffffff1681526020019081526020016000206000828254611162919061284a565b92505081905550816002600083815260200190815260200160002060006101000a81548173ffffffffffffffffffffffffffffffffffffffff021916908373ffffffffffffffffffffffffffffffffffffffff160217905550808273ffffffffffffffffffffffffffffffffffffffff168473ffffffffffffffffffffffffffffffffffffffff167fddf252ad1be2c89b69c2b068fc378daa952ba7f163c4a11628f55a4df523b3ef60405160405180910390a461122183838361187e565b505050565b6001816000016000828254019250508190555050565b600081600001549050919050565b600073ffffffffffffffffffffffffffffffffffffffff168273ffffffffffffffffffffffffffffffffffffffff1614156112ba576040517f08c379a00000000000000000000000000000000000000000000000000000000081526004016112b190612655565b60405180910390fd5b6112c381610db4565b15611303576040517f08c379a00000000000000000000000000000000000000000000000000000000081526004016112fa90612555565b60405180910390fd5b61130f60008383611879565b6001600360008473ffffffffffffffffffffffffffffffffffffffff1673ffffffffffffffffffffffffffffffffffffffff168152602001908152602001600020600082825461135f919061284a565b92505081905550816002600083815260200190815260200160002060006101000a81548173ffffffffffffffffffffffffffffffffffffffff021916908373ffffffffffffffffffffffffffffffffffffffff160217905550808273ffffffffffffffffffffffffffffffffffffffff16600073ffffffffffffffffffffffffffffffffffffffff167fddf252ad1be2c89b69c2b068fc378daa952ba7f163c4a11628f55a4df523b3ef60405160405180910390a46114206000838361187e565b5050565b61142d82610db4565b61146c576040517f08c379a000000000000000000000000000000000000000000000000000000000815260040161146390612635565b60405180910390fd5b80600660008481526020019081526020016000209080519060200190611493929190611ca8565b505050565b6000600760009054906101000a900473ffffffffffffffffffffffffffffffffffffffff16905081600760006101000a81548173ffffffffffffffffffffffffffffffffffffffff021916908373ffffffffffffffffffffffffffffffffffffffff1602179055508173ffffffffffffffffffffffffffffffffffffffff168173ffffffffffffffffffffffffffffffffffffffff167f8be0079c531659141344cd1fd0a4f28419497f9722a3daafe3b4186f6b6457e060405160405180910390a35050565b8173ffffffffffffffffffffffffffffffffffffffff168373ffffffffffffffffffffffffffffffffffffffff1614156115cd576040517f08c379a00000000000000000000000000000000000000000000000000000000081526004016115c490612595565b60405180910390fd5b80600560008573ffffffffffffffffffffffffffffffffffffffff1673ffffffffffffffffffffffffffffffffffffffff16815260200190815260200160002060008473ffffffffffffffffffffffffffffffffffffffff1673ffffffffffffffffffffffffffffffffffffffff16815260200190815260200160002060006101000a81548160ff0219169083151502179055508173ffffffffffffffffffffffffffffffffffffffff168373ffffffffffffffffffffffffffffffffffffffff167f17307eab39ab6107e8899845ad3d59bd9653f200f220920489ca2b5937696c31836040516116be91906124b8565b60405180910390a3505050565b6116d6848484610fbf565b6116e284848484611883565b611721576040517f08c379a0000000000000000000000000000000000000000000000000000000008152600401611718906124f5565b60405180910390fd5b50505050565b606061173282610db4565b611771576040517f08c379a000000000000000000000000000000000000000000000000000000000815260040161176890612675565b60405180910390fd5b6000600660008481526020019081526020016000208054611791906129bb565b80601f01602080910402602001604051908101604052809291908181526020018280546117bd906129bb565b801561180a5780601f106117df5761010080835404028352916020019161180a565b820191906000526020600020905b8154815290600101906020018083116117ed57829003601f168201915b50505050509050600061181b611a1a565b9050600081511415611831578192505050611874565b60008251111561186657808260405160200161184e92919061242d565b60405160208183030381529060405292505050611874565b61186f84611a31565b925050505b919050565b505050565b505050565b60006118a48473ffffffffffffffffffffffffffffffffffffffff16611ad8565b15611a0d578373ffffffffffffffffffffffffffffffffffffffff1663150b7a026118cd610e20565b8786866040518563ffffffff1660e01b81526004016118ef949392919061246c565b602060405180830381600087803b15801561190957600080fd5b505af192505050801561193a57506040513d601f19601f820116820180604052508101906119379190612054565b60015b6119bd573d806000811461196a576040519150601f19603f3d011682016040523d82523d6000602084013e61196f565b606091505b506000815114156119b5576040517f08c379a00000000000000000000000000000000000000000000000000000000081526004016119ac906124f5565b60405180910390fd5b805181602001fd5b63150b7a0260e01b7bffffffffffffffffffffffffffffffffffffffffffffffffffffffff1916817bffffffffffffffffffffffffffffffffffffffffffffffffffffffff191614915050611a12565b600190505b949350505050565b606060405180602001604052806000815250905090565b6060611a3c82610db4565b611a7b576040517f08c379a0000000000000000000000000000000000000000000000000000000008152600401611a72906126d5565b60405180910390fd5b6000611a85611a1a565b90506000815111611aa55760405180602001604052806000815250611ad0565b80611aaf84611afb565b604051602001611ac092919061242d565b6040516020818303038152906040525b915050919050565b6000808273ffffffffffffffffffffffffffffffffffffffff163b119050919050565b60606000821415611b43576040518060400160405280600181526020017f30000000000000000000000000000000000000000000000000000000000000008152509050611ca3565b600082905060005b60008214611b75578080611b5e90612a1e565b915050600a82611b6e91906128a0565b9150611b4b565b60008167ffffffffffffffff811115611bb7577f4e487b7100000000000000000000000000000000000000000000000000000000600052604160045260246000fd5b6040519080825280601f01601f191660200182016040528015611be95781602001600182028036833780820191505090505b5090505b60008514611c9c57600182611c0291906128d1565b9150600a85611c119190612a67565b6030611c1d919061284a565b60f81b818381518110611c59577f4e487b7100000000000000000000000000000000000000000000000000000000600052603260045260246000fd5b60200101907effffffffffffffffffffffffffffffffffffffffffffffffffffffffffffff1916908160001a905350600a85611c9591906128a0565b9450611bed565b8093505050505b919050565b828054611cb4906129bb565b90600052602060002090601f016020900481019282611cd65760008555611d1d565b82601f10611cef57805160ff1916838001178555611d1d565b82800160010185558215611d1d579182015b82811115611d1c578251825591602001919060010190611d01565b5b509050611d2a9190611d2e565b5090565b5b80821115611d47576000816000905550600101611d2f565b5090565b6000611d5e611d59846127a5565b612780565b905082815260208101848484011115611d7657600080fd5b611d81848285612979565b509392505050565b6000611d9c611d97846127d6565b612780565b905082815260208101848484011115611db457600080fd5b611dbf848285612979565b509392505050565b600081359050611dd68161305b565b92915050565b600081359050611deb81613072565b92915050565b600081359050611e0081613089565b92915050565b600081519050611e1581613089565b92915050565b600082601f830112611e2c57600080fd5b8135611e3c848260208601611d4b565b91505092915050565b600082601f830112611e5657600080fd5b8135611e66848260208601611d89565b91505092915050565b600081359050611e7e816130a0565b92915050565b600060208284031215611e9657600080fd5b6000611ea484828501611dc7565b91505092915050565b60008060408385031215611ec057600080fd5b6000611ece85828601611dc7565b9250506020611edf85828601611dc7565b9150509250929050565b600080600060608486031215611efe57600080fd5b6000611f0c86828701611dc7565b9350506020611f1d86828701611dc7565b9250506040611f2e86828701611e6f565b9150509250925092565b60008060008060808587031215611f4e57600080fd5b6000611f5c87828801611dc7565b9450506020611f6d87828801611dc7565b9350506040611f7e87828801611e6f565b925050606085013567ffffffffffffffff811115611f9b57600080fd5b611fa787828801611e1b565b91505092959194509250565b60008060408385031215611fc657600080fd5b6000611fd485828601611dc7565b9250506020611fe585828601611ddc565b9150509250929050565b6000806040838503121561200257600080fd5b600061201085828601611dc7565b925050602061202185828601611e6f565b9150509250929050565b60006020828403121561203d57600080fd5b600061204b84828501611df1565b91505092915050565b60006020828403121561206657600080fd5b600061207484828501611e06565b91505092915050565b60006020828403121561208f57600080fd5b600082013567ffffffffffffffff8111156120a957600080fd5b6120b584828501611e45565b91505092915050565b6000602082840312156120d057600080fd5b60006120de84828501611e6f565b91505092915050565b6120f081612905565b82525050565b6120ff81612917565b82525050565b600061211082612807565b61211a818561281d565b935061212a818560208601612988565b61213381612b54565b840191505092915050565b600061214982612812565b612153818561282e565b9350612163818560208601612988565b61216c81612b54565b840191505092915050565b600061218282612812565b61218c818561283f565b935061219c818560208601612988565b80840191505092915050565b60006121b560328361282e565b91506121c082612b65565b604082019050919050565b60006121d860268361282e565b91506121e382612bb4565b604082019050919050565b60006121fb60258361282e565b915061220682612c03565b604082019050919050565b600061221e601c8361282e565b915061222982612c52565b602082019050919050565b600061224160248361282e565b915061224c82612c7b565b604082019050919050565b600061226460198361282e565b915061226f82612cca565b602082019050919050565b6000612287602c8361282e565b915061229282612cf3565b604082019050919050565b60006122aa60388361282e565b91506122b582612d42565b604082019050919050565b60006122cd602a8361282e565b91506122d882612d91565b604082019050919050565b60006122f060298361282e565b91506122fb82612de0565b604082019050919050565b6000612313602e8361282e565b915061231e82612e2f565b604082019050919050565b600061233660208361282e565b915061234182612e7e565b602082019050919050565b600061235960318361282e565b915061236482612ea7565b604082019050919050565b600061237c602c8361282e565b915061238782612ef6565b604082019050919050565b600061239f60208361282e565b91506123aa82612f45565b602082019050919050565b60006123c2602f8361282e565b91506123cd82612f6e565b604082019050919050565b60006123e560218361282e565b91506123f082612fbd565b604082019050919050565b600061240860318361282e565b91506124138261300c565b604082019050919050565b6124278161296f565b82525050565b60006124398285612177565b91506124458284612177565b91508190509392505050565b600060208201905061246660008301846120e7565b92915050565b600060808201905061248160008301876120e7565b61248e60208301866120e7565b61249b604083018561241e565b81810360608301526124ad8184612105565b905095945050505050565b60006020820190506124cd60008301846120f6565b92915050565b600060208201905081810360008301526124ed818461213e565b905092915050565b6000602082019050818103600083015261250e816121a8565b9050919050565b6000602082019050818103600083015261252e816121cb565b9050919050565b6000602082019050818103600083015261254e816121ee565b9050919050565b6000602082019050818103600083015261256e81612211565b9050919050565b6000602082019050818103600083015261258e81612234565b9050919050565b600060208201905081810360008301526125ae81612257565b9050919050565b600060208201905081810360008301526125ce8161227a565b9050919050565b600060208201905081810360008301526125ee8161229d565b9050919050565b6000602082019050818103600083015261260e816122c0565b9050919050565b6000602082019050818103600083015261262e816122e3565b9050919050565b6000602082019050818103600083015261264e81612306565b9050919050565b6000602082019050818103600083015261266e81612329565b9050919050565b6000602082019050818103600083015261268e8161234c565b9050919050565b600060208201905081810360008301526126ae8161236f565b9050919050565b600060208201905081810360008301526126ce81612392565b9050919050565b600060208201905081810360008301526126ee816123b5565b9050919050565b6000602082019050818103600083015261270e816123d8565b9050919050565b6000602082019050818103600083015261272e816123fb565b9050919050565b600060208201905061274a600083018461241e565b92915050565b6000604082019050612765600083018561241e565b8181036020830152612777818461213e565b90509392505050565b600061278a61279b565b905061279682826129ed565b919050565b6000604051905090565b600067ffffffffffffffff8211156127c0576127bf612b25565b5b6127c982612b54565b9050602081019050919050565b600067ffffffffffffffff8211156127f1576127f0612b25565b5b6127fa82612b54565b9050602081019050919050565b600081519050919050565b600081519050919050565b600082825260208201905092915050565b600082825260208201905092915050565b600081905092915050565b60006128558261296f565b91506128608361296f565b9250827fffffffffffffffffffffffffffffffffffffffffffffffffffffffffffffffff0382111561289557612894612a98565b5b828201905092915050565b60006128ab8261296f565b91506128b68361296f565b9250826128c6576128c5612ac7565b5b828204905092915050565b60006128dc8261296f565b91506128e78361296f565b9250828210156128fa576128f9612a98565b5b828203905092915050565b60006129108261294f565b9050919050565b60008115159050919050565b60007fffffffff0000000000000000000000000000000000000000000000000000000082169050919050565b600073ffffffffffffffffffffffffffffffffffffffff82169050919050565b6000819050919050565b82818337600083830152505050565b60005b838110156129a657808201518184015260208101905061298b565b838111156129b5576000848401525b50505050565b600060028204905060018216806129d357607f821691505b602082108114156129e7576129e6612af6565b5b50919050565b6129f682612b54565b810181811067ffffffffffffffff82111715612a1557612a14612b25565b5b80604052505050565b6000612a298261296f565b91507fffffffffffffffffffffffffffffffffffffffffffffffffffffffffffffffff821415612a5c57612a5b612a98565b5b600182019050919050565b6000612a728261296f565b9150612a7d8361296f565b925082612a8d57612a8c612ac7565b5b828206905092915050565b7f4e487b7100000000000000000000000000000000000000000000000000000000600052601160045260246000fd5b7f4e487b7100000000000000000000000000000000000000000000000000000000600052601260045260246000fd5b7f4e487b7100000000000000000000000000000000000000000000000000000000600052602260045260246000fd5b7f4e487b7100000000000000000000000000000000000000000000000000000000600052604160045260246000fd5b6000601f19601f8301169050919050565b7f4552433732313a207472616e7366657220746f206e6f6e20455243373231526560008201527f63656976657220696d706c656d656e7465720000000000000000000000000000602082015250565b7f4f776e61626c653a206e6577206f776e657220697320746865207a65726f206160008201527f6464726573730000000000000000000000000000000000000000000000000000602082015250565b7f4552433732313a207472616e736665722066726f6d20696e636f72726563742060008201527f6f776e6572000000000000000000000000000000000000000000000000000000602082015250565b7f4552433732313a20746f6b656e20616c7265616479206d696e74656400000000600082015250565b7f4552433732313a207472616e7366657220746f20746865207a65726f2061646460008201527f7265737300000000000000000000000000000000000000000000000000000000602082015250565b7f4552433732313a20617070726f766520746f2063616c6c657200000000000000600082015250565b7f4552433732313a206f70657261746f7220717565727920666f72206e6f6e657860008201527f697374656e7420746f6b656e0000000000000000000000000000000000000000602082015250565b7f4552433732313a20617070726f76652063616c6c6572206973206e6f74206f7760008201527f6e6572206e6f7220617070726f76656420666f7220616c6c0000000000000000602082015250565b7f4552433732313a2062616c616e636520717565727920666f7220746865207a6560008201527f726f206164647265737300000000000000000000000000000000000000000000602082015250565b7f4552433732313a206f776e657220717565727920666f72206e6f6e657869737460008201527f656e7420746f6b656e0000000000000000000000000000000000000000000000602082015250565b7f45524337323155524953746f726167653a2055524920736574206f66206e6f6e60008201527f6578697374656e7420746f6b656e000000000000000000000000000000000000602082015250565b7f4552433732313a206d696e7420746f20746865207a65726f2061646472657373600082015250565b7f45524337323155524953746f726167653a2055524920717565727920666f722060008201527f6e6f6e6578697374656e7420746f6b656e000000000000000000000000000000602082015250565b7f4552433732313a20617070726f76656420717565727920666f72206e6f6e657860008201527f697374656e7420746f6b656e0000000000000000000000000000000000000000602082015250565b7f4f776e61626c653a2063616c6c6572206973206e6f7420746865206f776e6572600082015250565b7f4552433732314d657461646174613a2055524920717565727920666f72206e6f60008201527f6e6578697374656e7420746f6b656e0000000000000000000000000000000000602082015250565b7f4552433732313a20617070726f76616c20746f2063757272656e74206f776e6560008201527f7200000000000000000000000000000000000000000000000000000000000000602082015250565b7f4552433732313a207472616e736665722063616c6c6572206973206e6f74206f60008201527f776e6572206e6f7220617070726f766564000000000000000000000000000000602082015250565b61306481612905565b811461306f57600080fd5b50565b61307b81612917565b811461308657600080fd5b50565b61309281612923565b811461309d57600080fd5b50565b6130a98161296f565b81146130b457600080fd5b5056fea26469706673582212203ec929b508c0e7dd402895e38ec4c8391a4180dbfda80ac1ba05981b769afa0b64736f6c63430008040033",
  "immutableReferences": {},
  "source": "// SPDX-License-Identifier: MIT\npragma solidity ^0.8.0;\n\nimport \"@openzeppelin/contracts/token/ERC721/ERC721.sol\";\nimport \"@openzeppelin/contracts/token/ERC721/extensions/ERC721URIStorage.sol\";\nimport \"@openzeppelin/contracts/utils/Counters.sol\";\nimport \"@openzeppelin/contracts/access/Ownable.sol\";\n\n/**\n * @title ArtNFT\n * @dev Very simple ERC721 Token example, where all tokens are pre-assigned to the creator.\n * Note they can later distribute these tokens as they wish using `transfer` and other\n * `ERC20` functions.\n * Based on https://github.com/OpenZeppelin/openzeppelin-contracts/blob/v2.5.1/contracts/examples/SimpleToken.sol\n */\n\n\ncontract ArtNFT is ERC721, ERC721URIStorage, Ownable {\n    using Counters for Counters.Counter;\n    Counters.Counter private _tokenIds;\n\n    address constructorAddress;\n\n    constructor() ERC721(\"ArtNFT\", \"AAT\") {\n        constructorAddress = msg.sender;\n    }\n\n    event ArtNFTMinted(uint256 tokenId, string tokenUri);\n    /// @notice create new token\n    /// @param tokenUri uri of new token\n    \n    function createToken(string memory tokenUri) external onlyOwner returns (uint256) {\n        \n        _tokenIds.increment();\n        uint256 newNftTokenId = _tokenIds.current();\n        _mint(msg.sender, newNftTokenId);\n        _setTokenURI(newNftTokenId, tokenUri);\n        //grant transaction permission to marketplace\n        setApprovalForAll(constructorAddress, true);\n\n        emit ArtNFTMinted(newNftTokenId, tokenUri);\n        return newNftTokenId;\n    }\n\n    function getCurrentTokenId() public view returns(uint256){\n        return _tokenIds.current();\n    }\n    // The following functions are overrides required by Solidity.\n\n    function _burn(uint256 tokenId) \n        internal override(ERC721, ERC721URIStorage) {\n        super._burn(tokenId);\n    }\n\n    function tokenURI(uint256 tokenId)\n        public\n        view\n        override(ERC721, ERC721URIStorage)\n        returns (string memory)  {\n        \n        return super.tokenURI(tokenId);\n    }\n    \n    function getContractDate() public view returns(uint) {\n        uint time = block.timestamp;\n        return time;\n    }\n}",
  "sourcePath": "/Users/aubs/WORK/MORALIS/africa_art_nft/marketplace/truffleBin/contracts/ArtNFT.sol",
  "compiler": {
    "name": "solc",
    "version": "0.8.4+commit.c7e474f2.Emscripten.clang"
  },
  "schemaVersion": "3.4.3",
  "updatedAt": "2022-03-10T13:07:48.367Z",
  "devdoc": {
    "details": "Very simple ERC721 Token example, where all tokens are pre-assigned to the creator. Note they can later distribute these tokens as they wish using `transfer` and other `ERC20` functions. Based on https://github.com/OpenZeppelin/openzeppelin-contracts/blob/v2.5.1/contracts/examples/SimpleToken.sol",
    "kind": "dev",
    "methods": {
      "approve(address,uint256)": {
        "details": "See {IERC721-approve}."
      },
      "balanceOf(address)": {
        "details": "See {IERC721-balanceOf}."
      },
      "createToken(string)": {
        "params": {
          "tokenUri": "uri of new token"
        }
      },
      "getApproved(uint256)": {
        "details": "See {IERC721-getApproved}."
      },
      "isApprovedForAll(address,address)": {
        "details": "See {IERC721-isApprovedForAll}."
      },
      "name()": {
        "details": "See {IERC721Metadata-name}."
      },
      "owner()": {
        "details": "Returns the address of the current owner."
      },
      "ownerOf(uint256)": {
        "details": "See {IERC721-ownerOf}."
      },
      "renounceOwnership()": {
        "details": "Leaves the contract without owner. It will not be possible to call `onlyOwner` functions anymore. Can only be called by the current owner. NOTE: Renouncing ownership will leave the contract without an owner, thereby removing any functionality that is only available to the owner."
      },
      "safeTransferFrom(address,address,uint256)": {
        "details": "See {IERC721-safeTransferFrom}."
      },
      "safeTransferFrom(address,address,uint256,bytes)": {
        "details": "See {IERC721-safeTransferFrom}."
      },
      "setApprovalForAll(address,bool)": {
        "details": "See {IERC721-setApprovalForAll}."
      },
      "supportsInterface(bytes4)": {
        "details": "See {IERC165-supportsInterface}."
      },
      "symbol()": {
        "details": "See {IERC721Metadata-symbol}."
      },
      "transferFrom(address,address,uint256)": {
        "details": "See {IERC721-transferFrom}."
      },
      "transferOwnership(address)": {
        "details": "Transfers ownership of the contract to a new account (`newOwner`). Can only be called by the current owner."
      }
    },
    "title": "ArtNFT",
    "version": 1
  },
  "userdoc": {
    "kind": "user",
    "methods": {
      "createToken(string)": {
        "notice": "create new token"
      }
    },
    "version": 1
  }
}