{
  "_format": "hh-sol-artifact-1",
  "contractName": "ArtNFT",
  "sourceName": "contracts/ArtNFT.sol",
  "abi": [
    {
      "inputs": [],
      "stateMutability": "nonpayable",
      "type": "constructor"
    },
    {
      "anonymous": false,
      "inputs": [
        {
          "indexed": true,
          "internalType": "address",
          "name": "owner",
          "type": "address"
        },
        {
          "indexed": true,
          "internalType": "address",
          "name": "approved",
          "type": "address"
        },
        {
          "indexed": true,
          "internalType": "uint256",
          "name": "tokenId",
          "type": "uint256"
        }
      ],
      "name": "Approval",
      "type": "event"
    },
    {
      "anonymous": false,
      "inputs": [
        {
          "indexed": true,
          "internalType": "address",
          "name": "owner",
          "type": "address"
        },
        {
          "indexed": true,
          "internalType": "address",
          "name": "operator",
          "type": "address"
        },
        {
          "indexed": false,
          "internalType": "bool",
          "name": "approved",
          "type": "bool"
        }
      ],
      "name": "ApprovalForAll",
      "type": "event"
    },
    {
      "anonymous": false,
      "inputs": [
        {
          "indexed": false,
          "internalType": "uint256",
          "name": "tokenId",
          "type": "uint256"
        },
        {
          "indexed": false,
          "internalType": "string",
          "name": "tokenUri",
          "type": "string"
        }
      ],
      "name": "ArtNFTMinted",
      "type": "event"
    },
    {
      "anonymous": false,
      "inputs": [
        {
          "indexed": true,
          "internalType": "address",
          "name": "previousOwner",
          "type": "address"
        },
        {
          "indexed": true,
          "internalType": "address",
          "name": "newOwner",
          "type": "address"
        }
      ],
      "name": "OwnershipTransferred",
      "type": "event"
    },
    {
      "anonymous": false,
      "inputs": [
        {
          "indexed": true,
          "internalType": "address",
          "name": "from",
          "type": "address"
        },
        {
          "indexed": true,
          "internalType": "address",
          "name": "to",
          "type": "address"
        },
        {
          "indexed": true,
          "internalType": "uint256",
          "name": "tokenId",
          "type": "uint256"
        }
      ],
      "name": "Transfer",
      "type": "event"
    },
    {
      "inputs": [
        {
          "internalType": "address",
          "name": "to",
          "type": "address"
        },
        {
          "internalType": "uint256",
          "name": "tokenId",
          "type": "uint256"
        }
      ],
      "name": "approve",
      "outputs": [],
      "stateMutability": "nonpayable",
      "type": "function"
    },
    {
      "inputs": [
        {
          "internalType": "address",
          "name": "owner",
          "type": "address"
        }
      ],
      "name": "balanceOf",
      "outputs": [
        {
          "internalType": "uint256",
          "name": "",
          "type": "uint256"
        }
      ],
      "stateMutability": "view",
      "type": "function"
    },
    {
      "inputs": [
        {
          "internalType": "string",
          "name": "tokenUri",
          "type": "string"
        }
      ],
      "name": "createToken",
      "outputs": [
        {
          "internalType": "uint256",
          "name": "",
          "type": "uint256"
        }
      ],
      "stateMutability": "nonpayable",
      "type": "function"
    },
    {
      "inputs": [
        {
          "internalType": "uint256",
          "name": "tokenId",
          "type": "uint256"
        }
      ],
      "name": "getApproved",
      "outputs": [
        {
          "internalType": "address",
          "name": "",
          "type": "address"
        }
      ],
      "stateMutability": "view",
      "type": "function"
    },
    {
      "inputs": [],
      "name": "getContractDate",
      "outputs": [
        {
          "internalType": "uint256",
          "name": "",
          "type": "uint256"
        }
      ],
      "stateMutability": "view",
      "type": "function"
    },
    {
      "inputs": [],
      "name": "getCurrentTokenId",
      "outputs": [
        {
          "internalType": "uint256",
          "name": "",
          "type": "uint256"
        }
      ],
      "stateMutability": "view",
      "type": "function"
    },
    {
      "inputs": [
        {
          "internalType": "address",
          "name": "owner",
          "type": "address"
        },
        {
          "internalType": "address",
          "name": "operator",
          "type": "address"
        }
      ],
      "name": "isApprovedForAll",
      "outputs": [
        {
          "internalType": "bool",
          "name": "",
          "type": "bool"
        }
      ],
      "stateMutability": "view",
      "type": "function"
    },
    {
      "inputs": [],
      "name": "name",
      "outputs": [
        {
          "internalType": "string",
          "name": "",
          "type": "string"
        }
      ],
      "stateMutability": "view",
      "type": "function"
    },
    {
      "inputs": [],
      "name": "owner",
      "outputs": [
        {
          "internalType": "address",
          "name": "",
          "type": "address"
        }
      ],
      "stateMutability": "view",
      "type": "function"
    },
    {
      "inputs": [
        {
          "internalType": "uint256",
          "name": "tokenId",
          "type": "uint256"
        }
      ],
      "name": "ownerOf",
      "outputs": [
        {
          "internalType": "address",
          "name": "",
          "type": "address"
        }
      ],
      "stateMutability": "view",
      "type": "function"
    },
    {
      "inputs": [],
      "name": "renounceOwnership",
      "outputs": [],
      "stateMutability": "nonpayable",
      "type": "function"
    },
    {
      "inputs": [
        {
          "internalType": "address",
          "name": "from",
          "type": "address"
        },
        {
          "internalType": "address",
          "name": "to",
          "type": "address"
        },
        {
          "internalType": "uint256",
          "name": "tokenId",
          "type": "uint256"
        }
      ],
      "name": "safeTransferFrom",
      "outputs": [],
      "stateMutability": "nonpayable",
      "type": "function"
    },
    {
      "inputs": [
        {
          "internalType": "address",
          "name": "from",
          "type": "address"
        },
        {
          "internalType": "address",
          "name": "to",
          "type": "address"
        },
        {
          "internalType": "uint256",
          "name": "tokenId",
          "type": "uint256"
        },
        {
          "internalType": "bytes",
          "name": "_data",
          "type": "bytes"
        }
      ],
      "name": "safeTransferFrom",
      "outputs": [],
      "stateMutability": "nonpayable",
      "type": "function"
    },
    {
      "inputs": [
        {
          "internalType": "address",
          "name": "operator",
          "type": "address"
        },
        {
          "internalType": "bool",
          "name": "approved",
          "type": "bool"
        }
      ],
      "name": "setApprovalForAll",
      "outputs": [],
      "stateMutability": "nonpayable",
      "type": "function"
    },
    {
      "inputs": [
        {
          "internalType": "bytes4",
          "name": "interfaceId",
          "type": "bytes4"
        }
      ],
      "name": "supportsInterface",
      "outputs": [
        {
          "internalType": "bool",
          "name": "",
          "type": "bool"
        }
      ],
      "stateMutability": "view",
      "type": "function"
    },
    {
      "inputs": [],
      "name": "symbol",
      "outputs": [
        {
          "internalType": "string",
          "name": "",
          "type": "string"
        }
      ],
      "stateMutability": "view",
      "type": "function"
    },
    {
      "inputs": [
        {
          "internalType": "uint256",
          "name": "tokenId",
          "type": "uint256"
        }
      ],
      "name": "tokenURI",
      "outputs": [
        {
          "internalType": "string",
          "name": "",
          "type": "string"
        }
      ],
      "stateMutability": "view",
      "type": "function"
    },
    {
      "inputs": [
        {
          "internalType": "address",
          "name": "from",
          "type": "address"
        },
        {
          "internalType": "address",
          "name": "to",
          "type": "address"
        },
        {
          "internalType": "uint256",
          "name": "tokenId",
          "type": "uint256"
        }
      ],
      "name": "transferFrom",
      "outputs": [],
      "stateMutability": "nonpayable",
      "type": "function"
    },
    {
      "inputs": [
        {
          "internalType": "address",
          "name": "newOwner",
          "type": "address"
        }
      ],
      "name": "transferOwnership",
      "outputs": [],
      "stateMutability": "nonpayable",
      "type": "function"
    }
  ],
  "bytecode": "0x60806040523480156200001157600080fd5b506040518060400160405280600681526020017f4172744e465400000000000000000000000000000000000000000000000000008152506040518060400160405280600381526020017f4141540000000000000000000000000000000000000000000000000000000000815250816000908051906020019062000096929190620003a1565b508060019080519060200190620000af929190620003a1565b505050620000d2620000c66200016460201b60201c565b6200016c60201b60201c565b33600960006101000a81548173ffffffffffffffffffffffffffffffffffffffff021916908373ffffffffffffffffffffffffffffffffffffffff1602179055506200014260405180606001604052806029815260200162003986602991396200023260201b62000dff1760201c565b60003090506200015d81620002d560201b62000e981760201c565b50620005e0565b600033905090565b6000600760009054906101000a900473ffffffffffffffffffffffffffffffffffffffff16905081600760006101000a81548173ffffffffffffffffffffffffffffffffffffffff021916908373ffffffffffffffffffffffffffffffffffffffff1602179055508173ffffffffffffffffffffffffffffffffffffffff168173ffffffffffffffffffffffffffffffffffffffff167f8be0079c531659141344cd1fd0a4f28419497f9722a3daafe3b4186f6b6457e060405160405180910390a35050565b620002d281604051602401620002499190620004c0565b6040516020818303038152906040527f41304fac000000000000000000000000000000000000000000000000000000007bffffffffffffffffffffffffffffffffffffffffffffffffffffffff19166020820180517bffffffffffffffffffffffffffffffffffffffffffffffffffffffff83818316178352505050506200037860201b60201c565b50565b6200037581604051602401620002ec9190620004a3565b6040516020818303038152906040527f2c2ecbc2000000000000000000000000000000000000000000000000000000007bffffffffffffffffffffffffffffffffffffffffffffffffffffffff19166020820180517bffffffffffffffffffffffffffffffffffffffffffffffffffffffff83818316178352505050506200037860201b60201c565b50565b60008151905060006a636f6e736f6c652e6c6f679050602083016000808483855afa5050505050565b828054620003af906200056a565b90600052602060002090601f016020900481019282620003d357600085556200041f565b82601f10620003ee57805160ff19168380011785556200041f565b828001600101855582156200041f579182015b828111156200041e57825182559160200191906001019062000401565b5b5090506200042e919062000432565b5090565b5b808211156200044d57600081600090555060010162000433565b5090565b6200045c8162000500565b82525050565b60006200046f82620004e4565b6200047b8185620004ef565b93506200048d81856020860162000534565b6200049881620005cf565b840191505092915050565b6000602082019050620004ba600083018462000451565b92915050565b60006020820190508181036000830152620004dc818462000462565b905092915050565b600081519050919050565b600082825260208201905092915050565b60006200050d8262000514565b9050919050565b600073ffffffffffffffffffffffffffffffffffffffff82169050919050565b60005b838110156200055457808201518184015260208101905062000537565b8381111562000564576000848401525b50505050565b600060028204905060018216806200058357607f821691505b602082108114156200059a5762000599620005a0565b5b50919050565b7f4e487b7100000000000000000000000000000000000000000000000000000000600052602260045260246000fd5b6000601f19601f8301169050919050565b61339680620005f06000396000f3fe608060405234801561001057600080fd5b50600436106101215760003560e01c80636352211e116100ad578063a22cb46511610071578063a22cb4651461030a578063b88d4fde14610326578063c87b56dd14610342578063e985e9c514610372578063f2fde38b146103a257610121565b80636352211e1461026457806370a0823114610294578063715018a6146102c45780638da5cb5b146102ce57806395d89b41146102ec57610121565b806323b872dd116100f457806323b872dd146101c057806342842e0e146101dc57806345576f94146101f8578063554f4fc314610228578063561892361461024657610121565b806301ffc9a71461012657806306fdde0314610156578063081812fc14610174578063095ea7b3146101a4575b600080fd5b610140600480360381019061013b91906122d4565b6103be565b60405161014d9190612761565b60405180910390f35b61015e6104a0565b60405161016b919061277c565b60405180910390f35b61018e60048036038101906101899190612367565b610532565b60405161019b91906126fa565b60405180910390f35b6101be60048036038101906101b99190612298565b6105b7565b005b6101da60048036038101906101d59190612192565b6106cf565b005b6101f660048036038101906101f19190612192565b61072f565b005b610212600480360381019061020d9190612326565b61074f565b60405161021f91906129de565b60405180910390f35b6102306108d1565b60405161023d91906129de565b60405180910390f35b61024e6108de565b60405161025b91906129de565b60405180910390f35b61027e60048036038101906102799190612367565b61093b565b60405161028b91906126fa565b60405180910390f35b6102ae60048036038101906102a9919061212d565b6109ed565b6040516102bb91906129de565b60405180910390f35b6102cc610aa5565b005b6102d6610b2d565b6040516102e391906126fa565b60405180910390f35b6102f4610b57565b604051610301919061277c565b60405180910390f35b610324600480360381019061031f919061225c565b610be9565b005b610340600480360381019061033b91906121e1565b610bff565b005b61035c60048036038101906103579190612367565b610c61565b604051610369919061277c565b60405180910390f35b61038c60048036038101906103879190612156565b610c73565b6040516103999190612761565b60405180910390f35b6103bc60048036038101906103b7919061212d565b610d07565b005b60007f80ac58cd000000000000000000000000000000000000000000000000000000007bffffffffffffffffffffffffffffffffffffffffffffffffffffffff1916827bffffffffffffffffffffffffffffffffffffffffffffffffffffffff1916148061048957507f5b5e139f000000000000000000000000000000000000000000000000000000007bffffffffffffffffffffffffffffffffffffffffffffffffffffffff1916827bffffffffffffffffffffffffffffffffffffffffffffffffffffffff1916145b80610499575061049882610f31565b5b9050919050565b6060600080546104af90612c64565b80601f01602080910402602001604051908101604052809291908181526020018280546104db90612c64565b80156105285780601f106104fd57610100808354040283529160200191610528565b820191906000526020600020905b81548152906001019060200180831161050b57829003601f168201915b5050505050905090565b600061053d82610f9b565b61057c576040517f08c379a00000000000000000000000000000000000000000000000000000000081526004016105739061293e565b60405180910390fd5b6004600083815260200190815260200160002060009054906101000a900473ffffffffffffffffffffffffffffffffffffffff169050919050565b60006105c28261093b565b90508073ffffffffffffffffffffffffffffffffffffffff168373ffffffffffffffffffffffffffffffffffffffff161415610633576040517f08c379a000000000000000000000000000000000000000000000000000000000815260040161062a9061299e565b60405180910390fd5b8073ffffffffffffffffffffffffffffffffffffffff16610652611007565b73ffffffffffffffffffffffffffffffffffffffff16148061068157506106808161067b611007565b610c73565b5b6106c0576040517f08c379a00000000000000000000000000000000000000000000000000000000081526004016106b79061287e565b60405180910390fd5b6106ca838361100f565b505050565b6106e06106da611007565b826110c8565b61071f576040517f08c379a0000000000000000000000000000000000000000000000000000000008152600401610716906129be565b60405180910390fd5b61072a8383836111a6565b505050565b61074a83838360405180602001604052806000815250610bff565b505050565b6000610759611007565b73ffffffffffffffffffffffffffffffffffffffff16610777610b2d565b73ffffffffffffffffffffffffffffffffffffffff16146107cd576040517f08c379a00000000000000000000000000000000000000000000000000000000081526004016107c49061295e565b60405180910390fd5b6107d7600861140d565b60006107e36008611423565b9050610811600960009054906101000a900473ffffffffffffffffffffffffffffffffffffffff1682611431565b61081b818461160b565b610848600960009054906101000a900473ffffffffffffffffffffffffffffffffffffffff166001610be9565b7fe0ec5304c43239a43f111c4ec7133b19dfd0288292094dd69ecd4406b072ec8881846040516108799291906129f9565b60405180910390a16108bf6040518060400160405280601481526020017f4172744e465420546f6b656e2063726561746564000000000000000000000000815250610dff565b6108c88161167f565b80915050919050565b6000804290508091505090565b6000806108eb6008611423565b905061092b6040518060400160405280601081526020017f43757272656e7420546f6b656e20496400000000000000000000000000000000815250610dff565b6109348161167f565b8091505090565b6000806002600084815260200190815260200160002060009054906101000a900473ffffffffffffffffffffffffffffffffffffffff169050600073ffffffffffffffffffffffffffffffffffffffff168173ffffffffffffffffffffffffffffffffffffffff1614156109e4576040517f08c379a00000000000000000000000000000000000000000000000000000000081526004016109db906128be565b60405180910390fd5b80915050919050565b60008073ffffffffffffffffffffffffffffffffffffffff168273ffffffffffffffffffffffffffffffffffffffff161415610a5e576040517f08c379a0000000000000000000000000000000000000000000000000000000008152600401610a559061289e565b60405180910390fd5b600360008373ffffffffffffffffffffffffffffffffffffffff1673ffffffffffffffffffffffffffffffffffffffff168152602001908152602001600020549050919050565b610aad611007565b73ffffffffffffffffffffffffffffffffffffffff16610acb610b2d565b73ffffffffffffffffffffffffffffffffffffffff1614610b21576040517f08c379a0000000000000000000000000000000000000000000000000000000008152600401610b189061295e565b60405180910390fd5b610b2b6000611718565b565b6000600760009054906101000a900473ffffffffffffffffffffffffffffffffffffffff16905090565b606060018054610b6690612c64565b80601f0160208091040260200160405190810160405280929190818152602001828054610b9290612c64565b8015610bdf5780601f10610bb457610100808354040283529160200191610bdf565b820191906000526020600020905b815481529060010190602001808311610bc257829003601f168201915b5050505050905090565b610bfb610bf4611007565b83836117de565b5050565b610c10610c0a611007565b836110c8565b610c4f576040517f08c379a0000000000000000000000000000000000000000000000000000000008152600401610c46906129be565b60405180910390fd5b610c5b8484848461194b565b50505050565b6060610c6c826119a7565b9050919050565b6000600560008473ffffffffffffffffffffffffffffffffffffffff1673ffffffffffffffffffffffffffffffffffffffff16815260200190815260200160002060008373ffffffffffffffffffffffffffffffffffffffff1673ffffffffffffffffffffffffffffffffffffffff16815260200190815260200160002060009054906101000a900460ff16905092915050565b610d0f611007565b73ffffffffffffffffffffffffffffffffffffffff16610d2d610b2d565b73ffffffffffffffffffffffffffffffffffffffff1614610d83576040517f08c379a0000000000000000000000000000000000000000000000000000000008152600401610d7a9061295e565b60405180910390fd5b600073ffffffffffffffffffffffffffffffffffffffff168173ffffffffffffffffffffffffffffffffffffffff161415610df3576040517f08c379a0000000000000000000000000000000000000000000000000000000008152600401610dea906127be565b60405180910390fd5b610dfc81611718565b50565b610e9581604051602401610e13919061277c565b6040516020818303038152906040527f41304fac000000000000000000000000000000000000000000000000000000007bffffffffffffffffffffffffffffffffffffffffffffffffffffffff19166020820180517bffffffffffffffffffffffffffffffffffffffffffffffffffffffff8381831617835250505050611af9565b50565b610f2e81604051602401610eac91906126fa565b6040516020818303038152906040527f2c2ecbc2000000000000000000000000000000000000000000000000000000007bffffffffffffffffffffffffffffffffffffffffffffffffffffffff19166020820180517bffffffffffffffffffffffffffffffffffffffffffffffffffffffff8381831617835250505050611af9565b50565b60007f01ffc9a7000000000000000000000000000000000000000000000000000000007bffffffffffffffffffffffffffffffffffffffffffffffffffffffff1916827bffffffffffffffffffffffffffffffffffffffffffffffffffffffff1916149050919050565b60008073ffffffffffffffffffffffffffffffffffffffff166002600084815260200190815260200160002060009054906101000a900473ffffffffffffffffffffffffffffffffffffffff1673ffffffffffffffffffffffffffffffffffffffff1614159050919050565b600033905090565b816004600083815260200190815260200160002060006101000a81548173ffffffffffffffffffffffffffffffffffffffff021916908373ffffffffffffffffffffffffffffffffffffffff160217905550808273ffffffffffffffffffffffffffffffffffffffff166110828361093b565b73ffffffffffffffffffffffffffffffffffffffff167f8c5be1e5ebec7d5bd14f71427d1e84f3dd0314c0f7b2291e5b200ac8c7c3b92560405160405180910390a45050565b60006110d382610f9b565b611112576040517f08c379a00000000000000000000000000000000000000000000000000000000081526004016111099061285e565b60405180910390fd5b600061111d8361093b565b90508073ffffffffffffffffffffffffffffffffffffffff168473ffffffffffffffffffffffffffffffffffffffff16148061118c57508373ffffffffffffffffffffffffffffffffffffffff1661117484610532565b73ffffffffffffffffffffffffffffffffffffffff16145b8061119d575061119c8185610c73565b5b91505092915050565b8273ffffffffffffffffffffffffffffffffffffffff166111c68261093b565b73ffffffffffffffffffffffffffffffffffffffff161461121c576040517f08c379a0000000000000000000000000000000000000000000000000000000008152600401611213906127de565b60405180910390fd5b600073ffffffffffffffffffffffffffffffffffffffff168273ffffffffffffffffffffffffffffffffffffffff16141561128c576040517f08c379a00000000000000000000000000000000000000000000000000000000081526004016112839061281e565b60405180910390fd5b611297838383611b22565b6112a260008261100f565b6001600360008573ffffffffffffffffffffffffffffffffffffffff1673ffffffffffffffffffffffffffffffffffffffff16815260200190815260200160002060008282546112f29190612b7a565b925050819055506001600360008473ffffffffffffffffffffffffffffffffffffffff1673ffffffffffffffffffffffffffffffffffffffff16815260200190815260200160002060008282546113499190612af3565b92505081905550816002600083815260200190815260200160002060006101000a81548173ffffffffffffffffffffffffffffffffffffffff021916908373ffffffffffffffffffffffffffffffffffffffff160217905550808273ffffffffffffffffffffffffffffffffffffffff168473ffffffffffffffffffffffffffffffffffffffff167fddf252ad1be2c89b69c2b068fc378daa952ba7f163c4a11628f55a4df523b3ef60405160405180910390a4611408838383611b27565b505050565b6001816000016000828254019250508190555050565b600081600001549050919050565b600073ffffffffffffffffffffffffffffffffffffffff168273ffffffffffffffffffffffffffffffffffffffff1614156114a1576040517f08c379a0000000000000000000000000000000000000000000000000000000008152600401611498906128fe565b60405180910390fd5b6114aa81610f9b565b156114ea576040517f08c379a00000000000000000000000000000000000000000000000000000000081526004016114e1906127fe565b60405180910390fd5b6114f660008383611b22565b6001600360008473ffffffffffffffffffffffffffffffffffffffff1673ffffffffffffffffffffffffffffffffffffffff16815260200190815260200160002060008282546115469190612af3565b92505081905550816002600083815260200190815260200160002060006101000a81548173ffffffffffffffffffffffffffffffffffffffff021916908373ffffffffffffffffffffffffffffffffffffffff160217905550808273ffffffffffffffffffffffffffffffffffffffff16600073ffffffffffffffffffffffffffffffffffffffff167fddf252ad1be2c89b69c2b068fc378daa952ba7f163c4a11628f55a4df523b3ef60405160405180910390a461160760008383611b27565b5050565b61161482610f9b565b611653576040517f08c379a000000000000000000000000000000000000000000000000000000000815260040161164a906128de565b60405180910390fd5b8060066000848152602001908152602001600020908051906020019061167a929190611f51565b505050565b6117158160405160240161169391906129de565b6040516020818303038152906040527ff5b1bba9000000000000000000000000000000000000000000000000000000007bffffffffffffffffffffffffffffffffffffffffffffffffffffffff19166020820180517bffffffffffffffffffffffffffffffffffffffffffffffffffffffff8381831617835250505050611af9565b50565b6000600760009054906101000a900473ffffffffffffffffffffffffffffffffffffffff16905081600760006101000a81548173ffffffffffffffffffffffffffffffffffffffff021916908373ffffffffffffffffffffffffffffffffffffffff1602179055508173ffffffffffffffffffffffffffffffffffffffff168173ffffffffffffffffffffffffffffffffffffffff167f8be0079c531659141344cd1fd0a4f28419497f9722a3daafe3b4186f6b6457e060405160405180910390a35050565b8173ffffffffffffffffffffffffffffffffffffffff168373ffffffffffffffffffffffffffffffffffffffff16141561184d576040517f08c379a00000000000000000000000000000000000000000000000000000000081526004016118449061283e565b60405180910390fd5b80600560008573ffffffffffffffffffffffffffffffffffffffff1673ffffffffffffffffffffffffffffffffffffffff16815260200190815260200160002060008473ffffffffffffffffffffffffffffffffffffffff1673ffffffffffffffffffffffffffffffffffffffff16815260200190815260200160002060006101000a81548160ff0219169083151502179055508173ffffffffffffffffffffffffffffffffffffffff168373ffffffffffffffffffffffffffffffffffffffff167f17307eab39ab6107e8899845ad3d59bd9653f200f220920489ca2b5937696c318360405161193e9190612761565b60405180910390a3505050565b6119568484846111a6565b61196284848484611b2c565b6119a1576040517f08c379a00000000000000000000000000000000000000000000000000000000081526004016119989061279e565b60405180910390fd5b50505050565b60606119b282610f9b565b6119f1576040517f08c379a00000000000000000000000000000000000000000000000000000000081526004016119e89061291e565b60405180910390fd5b6000600660008481526020019081526020016000208054611a1190612c64565b80601f0160208091040260200160405190810160405280929190818152602001828054611a3d90612c64565b8015611a8a5780601f10611a5f57610100808354040283529160200191611a8a565b820191906000526020600020905b815481529060010190602001808311611a6d57829003601f168201915b505050505090506000611a9b611cc3565b9050600081511415611ab1578192505050611af4565b600082511115611ae6578082604051602001611ace9291906126d6565b60405160208183030381529060405292505050611af4565b611aef84611cda565b925050505b919050565b60008151905060006a636f6e736f6c652e6c6f679050602083016000808483855afa5050505050565b505050565b505050565b6000611b4d8473ffffffffffffffffffffffffffffffffffffffff16611d81565b15611cb6578373ffffffffffffffffffffffffffffffffffffffff1663150b7a02611b76611007565b8786866040518563ffffffff1660e01b8152600401611b989493929190612715565b602060405180830381600087803b158015611bb257600080fd5b505af1925050508015611be357506040513d601f19601f82011682018060405250810190611be091906122fd565b60015b611c66573d8060008114611c13576040519150601f19603f3d011682016040523d82523d6000602084013e611c18565b606091505b50600081511415611c5e576040517f08c379a0000000000000000000000000000000000000000000000000000000008152600401611c559061279e565b60405180910390fd5b805181602001fd5b63150b7a0260e01b7bffffffffffffffffffffffffffffffffffffffffffffffffffffffff1916817bffffffffffffffffffffffffffffffffffffffffffffffffffffffff191614915050611cbb565b600190505b949350505050565b606060405180602001604052806000815250905090565b6060611ce582610f9b565b611d24576040517f08c379a0000000000000000000000000000000000000000000000000000000008152600401611d1b9061297e565b60405180910390fd5b6000611d2e611cc3565b90506000815111611d4e5760405180602001604052806000815250611d79565b80611d5884611da4565b604051602001611d699291906126d6565b6040516020818303038152906040525b915050919050565b6000808273ffffffffffffffffffffffffffffffffffffffff163b119050919050565b60606000821415611dec576040518060400160405280600181526020017f30000000000000000000000000000000000000000000000000000000000000008152509050611f4c565b600082905060005b60008214611e1e578080611e0790612cc7565b915050600a82611e179190612b49565b9150611df4565b60008167ffffffffffffffff811115611e60577f4e487b7100000000000000000000000000000000000000000000000000000000600052604160045260246000fd5b6040519080825280601f01601f191660200182016040528015611e925781602001600182028036833780820191505090505b5090505b60008514611f4557600182611eab9190612b7a565b9150600a85611eba9190612d10565b6030611ec69190612af3565b60f81b818381518110611f02577f4e487b7100000000000000000000000000000000000000000000000000000000600052603260045260246000fd5b60200101907effffffffffffffffffffffffffffffffffffffffffffffffffffffffffffff1916908160001a905350600a85611f3e9190612b49565b9450611e96565b8093505050505b919050565b828054611f5d90612c64565b90600052602060002090601f016020900481019282611f7f5760008555611fc6565b82601f10611f9857805160ff1916838001178555611fc6565b82800160010185558215611fc6579182015b82811115611fc5578251825591602001919060010190611faa565b5b509050611fd39190611fd7565b5090565b5b80821115611ff0576000816000905550600101611fd8565b5090565b600061200761200284612a4e565b612a29565b90508281526020810184848401111561201f57600080fd5b61202a848285612c22565b509392505050565b600061204561204084612a7f565b612a29565b90508281526020810184848401111561205d57600080fd5b612068848285612c22565b509392505050565b60008135905061207f81613304565b92915050565b6000813590506120948161331b565b92915050565b6000813590506120a981613332565b92915050565b6000815190506120be81613332565b92915050565b600082601f8301126120d557600080fd5b81356120e5848260208601611ff4565b91505092915050565b600082601f8301126120ff57600080fd5b813561210f848260208601612032565b91505092915050565b60008135905061212781613349565b92915050565b60006020828403121561213f57600080fd5b600061214d84828501612070565b91505092915050565b6000806040838503121561216957600080fd5b600061217785828601612070565b925050602061218885828601612070565b9150509250929050565b6000806000606084860312156121a757600080fd5b60006121b586828701612070565b93505060206121c686828701612070565b92505060406121d786828701612118565b9150509250925092565b600080600080608085870312156121f757600080fd5b600061220587828801612070565b945050602061221687828801612070565b935050604061222787828801612118565b925050606085013567ffffffffffffffff81111561224457600080fd5b612250878288016120c4565b91505092959194509250565b6000806040838503121561226f57600080fd5b600061227d85828601612070565b925050602061228e85828601612085565b9150509250929050565b600080604083850312156122ab57600080fd5b60006122b985828601612070565b92505060206122ca85828601612118565b9150509250929050565b6000602082840312156122e657600080fd5b60006122f48482850161209a565b91505092915050565b60006020828403121561230f57600080fd5b600061231d848285016120af565b91505092915050565b60006020828403121561233857600080fd5b600082013567ffffffffffffffff81111561235257600080fd5b61235e848285016120ee565b91505092915050565b60006020828403121561237957600080fd5b600061238784828501612118565b91505092915050565b61239981612bae565b82525050565b6123a881612bc0565b82525050565b60006123b982612ab0565b6123c38185612ac6565b93506123d3818560208601612c31565b6123dc81612dfd565b840191505092915050565b60006123f282612abb565b6123fc8185612ad7565b935061240c818560208601612c31565b61241581612dfd565b840191505092915050565b600061242b82612abb565b6124358185612ae8565b9350612445818560208601612c31565b80840191505092915050565b600061245e603283612ad7565b915061246982612e0e565b604082019050919050565b6000612481602683612ad7565b915061248c82612e5d565b604082019050919050565b60006124a4602583612ad7565b91506124af82612eac565b604082019050919050565b60006124c7601c83612ad7565b91506124d282612efb565b602082019050919050565b60006124ea602483612ad7565b91506124f582612f24565b604082019050919050565b600061250d601983612ad7565b915061251882612f73565b602082019050919050565b6000612530602c83612ad7565b915061253b82612f9c565b604082019050919050565b6000612553603883612ad7565b915061255e82612feb565b604082019050919050565b6000612576602a83612ad7565b91506125818261303a565b604082019050919050565b6000612599602983612ad7565b91506125a482613089565b604082019050919050565b60006125bc602e83612ad7565b91506125c7826130d8565b604082019050919050565b60006125df602083612ad7565b91506125ea82613127565b602082019050919050565b6000612602603183612ad7565b915061260d82613150565b604082019050919050565b6000612625602c83612ad7565b91506126308261319f565b604082019050919050565b6000612648602083612ad7565b9150612653826131ee565b602082019050919050565b600061266b602f83612ad7565b915061267682613217565b604082019050919050565b600061268e602183612ad7565b915061269982613266565b604082019050919050565b60006126b1603183612ad7565b91506126bc826132b5565b604082019050919050565b6126d081612c18565b82525050565b60006126e28285612420565b91506126ee8284612420565b91508190509392505050565b600060208201905061270f6000830184612390565b92915050565b600060808201905061272a6000830187612390565b6127376020830186612390565b61274460408301856126c7565b818103606083015261275681846123ae565b905095945050505050565b6000602082019050612776600083018461239f565b92915050565b6000602082019050818103600083015261279681846123e7565b905092915050565b600060208201905081810360008301526127b781612451565b9050919050565b600060208201905081810360008301526127d781612474565b9050919050565b600060208201905081810360008301526127f781612497565b9050919050565b60006020820190508181036000830152612817816124ba565b9050919050565b60006020820190508181036000830152612837816124dd565b9050919050565b6000602082019050818103600083015261285781612500565b9050919050565b6000602082019050818103600083015261287781612523565b9050919050565b6000602082019050818103600083015261289781612546565b9050919050565b600060208201905081810360008301526128b781612569565b9050919050565b600060208201905081810360008301526128d78161258c565b9050919050565b600060208201905081810360008301526128f7816125af565b9050919050565b60006020820190508181036000830152612917816125d2565b9050919050565b60006020820190508181036000830152612937816125f5565b9050919050565b6000602082019050818103600083015261295781612618565b9050919050565b600060208201905081810360008301526129778161263b565b9050919050565b600060208201905081810360008301526129978161265e565b9050919050565b600060208201905081810360008301526129b781612681565b9050919050565b600060208201905081810360008301526129d7816126a4565b9050919050565b60006020820190506129f360008301846126c7565b92915050565b6000604082019050612a0e60008301856126c7565b8181036020830152612a2081846123e7565b90509392505050565b6000612a33612a44565b9050612a3f8282612c96565b919050565b6000604051905090565b600067ffffffffffffffff821115612a6957612a68612dce565b5b612a7282612dfd565b9050602081019050919050565b600067ffffffffffffffff821115612a9a57612a99612dce565b5b612aa382612dfd565b9050602081019050919050565b600081519050919050565b600081519050919050565b600082825260208201905092915050565b600082825260208201905092915050565b600081905092915050565b6000612afe82612c18565b9150612b0983612c18565b9250827fffffffffffffffffffffffffffffffffffffffffffffffffffffffffffffffff03821115612b3e57612b3d612d41565b5b828201905092915050565b6000612b5482612c18565b9150612b5f83612c18565b925082612b6f57612b6e612d70565b5b828204905092915050565b6000612b8582612c18565b9150612b9083612c18565b925082821015612ba357612ba2612d41565b5b828203905092915050565b6000612bb982612bf8565b9050919050565b60008115159050919050565b60007fffffffff0000000000000000000000000000000000000000000000000000000082169050919050565b600073ffffffffffffffffffffffffffffffffffffffff82169050919050565b6000819050919050565b82818337600083830152505050565b60005b83811015612c4f578082015181840152602081019050612c34565b83811115612c5e576000848401525b50505050565b60006002820490506001821680612c7c57607f821691505b60208210811415612c9057612c8f612d9f565b5b50919050565b612c9f82612dfd565b810181811067ffffffffffffffff82111715612cbe57612cbd612dce565b5b80604052505050565b6000612cd282612c18565b91507fffffffffffffffffffffffffffffffffffffffffffffffffffffffffffffffff821415612d0557612d04612d41565b5b600182019050919050565b6000612d1b82612c18565b9150612d2683612c18565b925082612d3657612d35612d70565b5b828206905092915050565b7f4e487b7100000000000000000000000000000000000000000000000000000000600052601160045260246000fd5b7f4e487b7100000000000000000000000000000000000000000000000000000000600052601260045260246000fd5b7f4e487b7100000000000000000000000000000000000000000000000000000000600052602260045260246000fd5b7f4e487b7100000000000000000000000000000000000000000000000000000000600052604160045260246000fd5b6000601f19601f8301169050919050565b7f4552433732313a207472616e7366657220746f206e6f6e20455243373231526560008201527f63656976657220696d706c656d656e7465720000000000000000000000000000602082015250565b7f4f776e61626c653a206e6577206f776e657220697320746865207a65726f206160008201527f6464726573730000000000000000000000000000000000000000000000000000602082015250565b7f4552433732313a207472616e736665722066726f6d20696e636f72726563742060008201527f6f776e6572000000000000000000000000000000000000000000000000000000602082015250565b7f4552433732313a20746f6b656e20616c7265616479206d696e74656400000000600082015250565b7f4552433732313a207472616e7366657220746f20746865207a65726f2061646460008201527f7265737300000000000000000000000000000000000000000000000000000000602082015250565b7f4552433732313a20617070726f766520746f2063616c6c657200000000000000600082015250565b7f4552433732313a206f70657261746f7220717565727920666f72206e6f6e657860008201527f697374656e7420746f6b656e0000000000000000000000000000000000000000602082015250565b7f4552433732313a20617070726f76652063616c6c6572206973206e6f74206f7760008201527f6e6572206e6f7220617070726f76656420666f7220616c6c0000000000000000602082015250565b7f4552433732313a2062616c616e636520717565727920666f7220746865207a6560008201527f726f206164647265737300000000000000000000000000000000000000000000602082015250565b7f4552433732313a206f776e657220717565727920666f72206e6f6e657869737460008201527f656e7420746f6b656e0000000000000000000000000000000000000000000000602082015250565b7f45524337323155524953746f726167653a2055524920736574206f66206e6f6e60008201527f6578697374656e7420746f6b656e000000000000000000000000000000000000602082015250565b7f4552433732313a206d696e7420746f20746865207a65726f2061646472657373600082015250565b7f45524337323155524953746f726167653a2055524920717565727920666f722060008201527f6e6f6e6578697374656e7420746f6b656e000000000000000000000000000000602082015250565b7f4552433732313a20617070726f76656420717565727920666f72206e6f6e657860008201527f697374656e7420746f6b656e0000000000000000000000000000000000000000602082015250565b7f4f776e61626c653a2063616c6c6572206973206e6f7420746865206f776e6572600082015250565b7f4552433732314d657461646174613a2055524920717565727920666f72206e6f60008201527f6e6578697374656e7420746f6b656e0000000000000000000000000000000000602082015250565b7f4552433732313a20617070726f76616c20746f2063757272656e74206f776e6560008201527f7200000000000000000000000000000000000000000000000000000000000000602082015250565b7f4552433732313a207472616e736665722063616c6c6572206973206e6f74206f60008201527f776e6572206e6f7220617070726f766564000000000000000000000000000000602082015250565b61330d81612bae565b811461331857600080fd5b50565b61332481612bc0565b811461332f57600080fd5b50565b61333b81612bcc565b811461334657600080fd5b50565b61335281612c18565b811461335d57600080fd5b5056fea26469706673582212202d499e02430b580af743cf92e2dce5a6a4ba8f8634606955b8b61fd8fb60d55d64736f6c634300080400334172744e465420636f6e7374727563746f723a20436f6e747261637420616464726573732069733a20",
  "linkReferences": {},
  "deployedLinkReferences": {}
}