{
  "contractName": "NFTMarket",
  "abi": [
    {
      "inputs": [],
      "stateMutability": "nonpayable",
      "type": "constructor"
    },
    {
      "anonymous": false,
      "inputs": [
        {
          "indexed": true,
          "internalType": "uint256",
          "name": "itemId",
          "type": "uint256"
        },
        {
          "indexed": true,
          "internalType": "address",
          "name": "nftContract",
          "type": "address"
        },
        {
          "indexed": true,
          "internalType": "uint256",
          "name": "tokenId",
          "type": "uint256"
        },
        {
          "indexed": false,
          "internalType": "address",
          "name": "seller",
          "type": "address"
        },
        {
          "indexed": false,
          "internalType": "address",
          "name": "owner",
          "type": "address"
        },
        {
          "indexed": false,
          "internalType": "uint256",
          "name": "price",
          "type": "uint256"
        },
        {
          "indexed": false,
          "internalType": "bool",
          "name": "sold",
          "type": "bool"
        }
      ],
      "name": "MarketItemCreated",
      "type": "event"
    },
    {
      "anonymous": false,
      "inputs": [
        {
          "indexed": false,
          "internalType": "address",
          "name": "nftContract",
          "type": "address"
        },
        {
          "indexed": false,
          "internalType": "uint256",
          "name": "itemId",
          "type": "uint256"
        },
        {
          "indexed": false,
          "internalType": "uint256",
          "name": "price",
          "type": "uint256"
        }
      ],
      "name": "MarketItemSold",
      "type": "event"
    },
    {
      "inputs": [],
      "name": "getListingPrice",
      "outputs": [
        {
          "internalType": "uint256",
          "name": "",
          "type": "uint256"
        }
      ],
      "stateMutability": "view",
      "type": "function",
      "constant": true
    },
    {
      "inputs": [
        {
          "internalType": "uint256",
          "name": "_price",
          "type": "uint256"
        }
      ],
      "name": "setListingPrice",
      "outputs": [
        {
          "internalType": "uint256",
          "name": "",
          "type": "uint256"
        }
      ],
      "stateMutability": "nonpayable",
      "type": "function"
    },
    {
      "inputs": [
        {
          "internalType": "address",
          "name": "nftContract",
          "type": "address"
        },
        {
          "internalType": "uint256",
          "name": "tokenId",
          "type": "uint256"
        },
        {
          "internalType": "uint256",
          "name": "price",
          "type": "uint256"
        }
      ],
      "name": "addMarketItem",
      "outputs": [],
      "stateMutability": "payable",
      "type": "function",
      "payable": true
    },
    {
      "inputs": [
        {
          "internalType": "address",
          "name": "nftContract",
          "type": "address"
        },
        {
          "internalType": "uint256",
          "name": "itemId",
          "type": "uint256"
        }
      ],
      "name": "makeMarketSale",
      "outputs": [],
      "stateMutability": "payable",
      "type": "function",
      "payable": true
    },
    {
      "inputs": [],
      "name": "fetchMarketItems",
      "outputs": [
        {
          "components": [
            {
              "internalType": "uint256",
              "name": "itemId",
              "type": "uint256"
            },
            {
              "internalType": "address",
              "name": "nftContract",
              "type": "address"
            },
            {
              "internalType": "uint256",
              "name": "tokenId",
              "type": "uint256"
            },
            {
              "internalType": "address payable",
              "name": "seller",
              "type": "address"
            },
            {
              "internalType": "address payable",
              "name": "owner",
              "type": "address"
            },
            {
              "internalType": "uint256",
              "name": "price",
              "type": "uint256"
            },
            {
              "internalType": "bool",
              "name": "sold",
              "type": "bool"
            }
          ],
          "internalType": "struct NFTMarket.MarketItem[]",
          "name": "",
          "type": "tuple[]"
        }
      ],
      "stateMutability": "view",
      "type": "function",
      "constant": true
    },
    {
      "inputs": [],
      "name": "fetchUserNFTs",
      "outputs": [
        {
          "components": [
            {
              "internalType": "uint256",
              "name": "itemId",
              "type": "uint256"
            },
            {
              "internalType": "address",
              "name": "nftContract",
              "type": "address"
            },
            {
              "internalType": "uint256",
              "name": "tokenId",
              "type": "uint256"
            },
            {
              "internalType": "address payable",
              "name": "seller",
              "type": "address"
            },
            {
              "internalType": "address payable",
              "name": "owner",
              "type": "address"
            },
            {
              "internalType": "uint256",
              "name": "price",
              "type": "uint256"
            },
            {
              "internalType": "bool",
              "name": "sold",
              "type": "bool"
            }
          ],
          "internalType": "struct NFTMarket.MarketItem[]",
          "name": "",
          "type": "tuple[]"
        }
      ],
      "stateMutability": "view",
      "type": "function",
      "constant": true
    },
    {
      "inputs": [],
      "name": "fetchItemsCreated",
      "outputs": [
        {
          "components": [
            {
              "internalType": "uint256",
              "name": "itemId",
              "type": "uint256"
            },
            {
              "internalType": "address",
              "name": "nftContract",
              "type": "address"
            },
            {
              "internalType": "uint256",
              "name": "tokenId",
              "type": "uint256"
            },
            {
              "internalType": "address payable",
              "name": "seller",
              "type": "address"
            },
            {
              "internalType": "address payable",
              "name": "owner",
              "type": "address"
            },
            {
              "internalType": "uint256",
              "name": "price",
              "type": "uint256"
            },
            {
              "internalType": "bool",
              "name": "sold",
              "type": "bool"
            }
          ],
          "internalType": "struct NFTMarket.MarketItem[]",
          "name": "",
          "type": "tuple[]"
        }
      ],
      "stateMutability": "view",
      "type": "function",
      "constant": true
    },
    {
      "inputs": [],
      "name": "getContractDate",
      "outputs": [
        {
          "internalType": "uint256",
          "name": "",
          "type": "uint256"
        }
      ],
      "stateMutability": "view",
      "type": "function",
      "constant": true
    }
  ],
  "bytecode": "0x60806040526658d15e1762800060045534801561001b57600080fd5b50600160008190555033600360006101000a81548173ffffffffffffffffffffffffffffffffffffffff021916908373ffffffffffffffffffffffffffffffffffffffff160217905550611af5806100746000396000f3fe60806040526004361061007b5760003560e01c80637c726b691161004e5780637c726b691461011d578063b77f62c41461015a578063ef76280f14610176578063f064c32e146101a15761007b565b80630f08efe01461008057806312e85585146100ab5780633138fc51146100d6578063554f4fc3146100f2575b600080fd5b34801561008c57600080fd5b506100956101cc565b6040516100a2919061173e565b60405180910390f35b3480156100b757600080fd5b506100c06104f8565b6040516100cd91906117e0565b60405180910390f35b6100f060048036038101906100eb91906113de565b610502565b005b3480156100fe57600080fd5b506101076107f6565b60405161011491906117e0565b60405180910390f35b34801561012957600080fd5b50610144600480360381019061013f9190611469565b610803565b60405161015191906117e0565b60405180910390f35b610174600480360381019061016f919061141a565b61084b565b005b34801561018257600080fd5b5061018b610baf565b604051610198919061173e565b60405180910390f35b3480156101ad57600080fd5b506101b6610f5f565b6040516101c3919061173e565b60405180910390f35b606060006101da600161130f565b905060006101e8600261130f565b6101f2600161130f565b6101fc919061189b565b90506000808267ffffffffffffffff811115610241577f4e487b7100000000000000000000000000000000000000000000000000000000600052604160045260246000fd5b60405190808252806020026020018201604052801561027a57816020015b610267611333565b81526020019060019003908161025f5790505b50905060005b848110156104ed57600073ffffffffffffffffffffffffffffffffffffffff16600560006001846102b19190611845565b815260200190815260200160002060040160009054906101000a900473ffffffffffffffffffffffffffffffffffffffff1673ffffffffffffffffffffffffffffffffffffffff1614156104da576000600560006001846103129190611845565b81526020019081526020016000206000015490506000600560008381526020019081526020016000209050806040518060e0016040529081600082015481526020016001820160009054906101000a900473ffffffffffffffffffffffffffffffffffffffff1673ffffffffffffffffffffffffffffffffffffffff1673ffffffffffffffffffffffffffffffffffffffff168152602001600282015481526020016003820160009054906101000a900473ffffffffffffffffffffffffffffffffffffffff1673ffffffffffffffffffffffffffffffffffffffff1673ffffffffffffffffffffffffffffffffffffffff1681526020016004820160009054906101000a900473ffffffffffffffffffffffffffffffffffffffff1673ffffffffffffffffffffffffffffffffffffffff1673ffffffffffffffffffffffffffffffffffffffff168152602001600582015481526020016006820160009054906101000a900460ff1615151515815250508486815181106104bd577f4e487b7100000000000000000000000000000000000000000000000000000000600052603260045260246000fd5b60200260200101819052506001856104d59190611845565b945050505b80806104e590611929565b915050610280565b508094505050505090565b6000600454905090565b60026000541415610548576040517f08c379a000000000000000000000000000000000000000000000000000000000815260040161053f906117c0565b60405180910390fd5b60026000819055506000600560008381526020019081526020016000206005015490506000600560008481526020019081526020016000206002015490508134146105c8576040517f08c379a00000000000000000000000000000000000000000000000000000000081526004016105bf90611760565b60405180910390fd5b6005600084815260200190815260200160002060030160009054906101000a900473ffffffffffffffffffffffffffffffffffffffff1673ffffffffffffffffffffffffffffffffffffffff166108fc349081150290604051600060405180830381858888f19350505050158015610644573d6000803e3d6000fd5b508373ffffffffffffffffffffffffffffffffffffffff166323b872dd3033846040518463ffffffff1660e01b81526004016106829392919061168b565b600060405180830381600087803b15801561069c57600080fd5b505af11580156106b0573d6000803e3d6000fd5b50505050336005600085815260200190815260200160002060040160006101000a81548173ffffffffffffffffffffffffffffffffffffffff021916908373ffffffffffffffffffffffffffffffffffffffff16021790555060016005600085815260200190815260200160002060060160006101000a81548160ff021916908315150217905550610742600261131d565b600360009054906101000a900473ffffffffffffffffffffffffffffffffffffffff1673ffffffffffffffffffffffffffffffffffffffff166108fc6004549081150290604051600060405180830381858888f193505050501580156107ac573d6000803e3d6000fd5b507f24b313bbf3065ea6fc13951b8d4bf548b3c67ed60eaaeeaac5e5b07352d900b18484846040516107e093929190611707565b60405180910390a1505060016000819055505050565b6000804290508091505090565b60003073ffffffffffffffffffffffffffffffffffffffff163373ffffffffffffffffffffffffffffffffffffffff16141561084157816004819055505b6004549050919050565b60026000541415610891576040517f08c379a0000000000000000000000000000000000000000000000000000000008152600401610888906117c0565b60405180910390fd5b6002600081905550600081116108dc576040517f08c379a00000000000000000000000000000000000000000000000000000000081526004016108d390611780565b60405180910390fd5b6004543414610920576040517f08c379a0000000000000000000000000000000000000000000000000000000008152600401610917906117a0565b60405180910390fd5b61092a600161131d565b6000610936600161130f565b90506040518060e001604052808281526020018573ffffffffffffffffffffffffffffffffffffffff1681526020018481526020013373ffffffffffffffffffffffffffffffffffffffff168152602001600073ffffffffffffffffffffffffffffffffffffffff16815260200183815260200160001515815250600560008381526020019081526020016000206000820151816000015560208201518160010160006101000a81548173ffffffffffffffffffffffffffffffffffffffff021916908373ffffffffffffffffffffffffffffffffffffffff1602179055506040820151816002015560608201518160030160006101000a81548173ffffffffffffffffffffffffffffffffffffffff021916908373ffffffffffffffffffffffffffffffffffffffff16021790555060808201518160040160006101000a81548173ffffffffffffffffffffffffffffffffffffffff021916908373ffffffffffffffffffffffffffffffffffffffff16021790555060a0820151816005015560c08201518160060160006101000a81548160ff0219169083151502179055509050508373ffffffffffffffffffffffffffffffffffffffff166323b872dd3330866040518463ffffffff1660e01b8152600401610b179392919061168b565b600060405180830381600087803b158015610b3157600080fd5b505af1158015610b45573d6000803e3d6000fd5b50505050828473ffffffffffffffffffffffffffffffffffffffff16827f045dfa01dcba2b36aba1d3dc4a874f4b0c5d2fbeb8d2c4b34a7d88c8d8f929d1336000876000604051610b9994939291906116c2565b60405180910390a4506001600081905550505050565b60606000610bbd600161130f565b905060008060005b83811015610c66573373ffffffffffffffffffffffffffffffffffffffff1660056000600184610bf59190611845565b815260200190815260200160002060040160009054906101000a900473ffffffffffffffffffffffffffffffffffffffff1673ffffffffffffffffffffffffffffffffffffffff161415610c5357600183610c509190611845565b92505b8080610c5e90611929565b915050610bc5565b5060008267ffffffffffffffff811115610ca9577f4e487b7100000000000000000000000000000000000000000000000000000000600052604160045260246000fd5b604051908082528060200260200182016040528015610ce257816020015b610ccf611333565b815260200190600190039081610cc75790505b50905060005b84811015610f54573373ffffffffffffffffffffffffffffffffffffffff1660056000600184610d189190611845565b815260200190815260200160002060040160009054906101000a900473ffffffffffffffffffffffffffffffffffffffff1673ffffffffffffffffffffffffffffffffffffffff161415610f4157600060056000600184610d799190611845565b81526020019081526020016000206000015490506000600560008381526020019081526020016000209050806040518060e0016040529081600082015481526020016001820160009054906101000a900473ffffffffffffffffffffffffffffffffffffffff1673ffffffffffffffffffffffffffffffffffffffff1673ffffffffffffffffffffffffffffffffffffffff168152602001600282015481526020016003820160009054906101000a900473ffffffffffffffffffffffffffffffffffffffff1673ffffffffffffffffffffffffffffffffffffffff1673ffffffffffffffffffffffffffffffffffffffff1681526020016004820160009054906101000a900473ffffffffffffffffffffffffffffffffffffffff1673ffffffffffffffffffffffffffffffffffffffff1673ffffffffffffffffffffffffffffffffffffffff168152602001600582015481526020016006820160009054906101000a900460ff161515151581525050848681518110610f24577f4e487b7100000000000000000000000000000000000000000000000000000000600052603260045260246000fd5b6020026020010181905250600185610f3c9190611845565b945050505b8080610f4c90611929565b915050610ce8565b508094505050505090565b60606000610f6d600161130f565b905060008060005b83811015611016573373ffffffffffffffffffffffffffffffffffffffff1660056000600184610fa59190611845565b815260200190815260200160002060030160009054906101000a900473ffffffffffffffffffffffffffffffffffffffff1673ffffffffffffffffffffffffffffffffffffffff161415611003576001836110009190611845565b92505b808061100e90611929565b915050610f75565b5060008267ffffffffffffffff811115611059577f4e487b7100000000000000000000000000000000000000000000000000000000600052604160045260246000fd5b60405190808252806020026020018201604052801561109257816020015b61107f611333565b8152602001906001900390816110775790505b50905060005b84811015611304573373ffffffffffffffffffffffffffffffffffffffff16600560006001846110c89190611845565b815260200190815260200160002060030160009054906101000a900473ffffffffffffffffffffffffffffffffffffffff1673ffffffffffffffffffffffffffffffffffffffff1614156112f1576000600560006001846111299190611845565b81526020019081526020016000206000015490506000600560008381526020019081526020016000209050806040518060e0016040529081600082015481526020016001820160009054906101000a900473ffffffffffffffffffffffffffffffffffffffff1673ffffffffffffffffffffffffffffffffffffffff1673ffffffffffffffffffffffffffffffffffffffff168152602001600282015481526020016003820160009054906101000a900473ffffffffffffffffffffffffffffffffffffffff1673ffffffffffffffffffffffffffffffffffffffff1673ffffffffffffffffffffffffffffffffffffffff1681526020016004820160009054906101000a900473ffffffffffffffffffffffffffffffffffffffff1673ffffffffffffffffffffffffffffffffffffffff1673ffffffffffffffffffffffffffffffffffffffff168152602001600582015481526020016006820160009054906101000a900460ff1615151515815250508486815181106112d4577f4e487b7100000000000000000000000000000000000000000000000000000000600052603260045260246000fd5b60200260200101819052506001856112ec9190611845565b945050505b80806112fc90611929565b915050611098565b508094505050505090565b600081600001549050919050565b6001816000016000828254019250508190555050565b6040518060e0016040528060008152602001600073ffffffffffffffffffffffffffffffffffffffff16815260200160008152602001600073ffffffffffffffffffffffffffffffffffffffff168152602001600073ffffffffffffffffffffffffffffffffffffffff168152602001600081526020016000151581525090565b6000813590506113c381611a91565b92915050565b6000813590506113d881611aa8565b92915050565b600080604083850312156113f157600080fd5b60006113ff858286016113b4565b9250506020611410858286016113c9565b9150509250929050565b60008060006060848603121561142f57600080fd5b600061143d868287016113b4565b935050602061144e868287016113c9565b925050604061145f868287016113c9565b9150509250925092565b60006020828403121561147b57600080fd5b6000611489848285016113c9565b91505092915050565b600061149e83836115df565b60e08301905092915050565b6114b3816118e1565b82525050565b6114c2816118cf565b82525050565b6114d1816118cf565b82525050565b60006114e28261180b565b6114ec8185611823565b93506114f7836117fb565b8060005b8381101561152857815161150f8882611492565b975061151a83611816565b9250506001810190506114fb565b5085935050505092915050565b61153e816118f3565b82525050565b61154d816118f3565b82525050565b6000611560603c83611834565b915061156b826119a1565b604082019050919050565b6000611583601883611834565b915061158e826119f0565b602082019050919050565b60006115a6602483611834565b91506115b182611a19565b604082019050919050565b60006115c9601f83611834565b91506115d482611a68565b602082019050919050565b60e0820160008201516115f5600085018261166d565b50602082015161160860208501826114b9565b50604082015161161b604085018261166d565b50606082015161162e60608501826114aa565b50608082015161164160808501826114aa565b5060a082015161165460a085018261166d565b5060c082015161166760c0850182611535565b50505050565b6116768161191f565b82525050565b6116858161191f565b82525050565b60006060820190506116a060008301866114c8565b6116ad60208301856114c8565b6116ba604083018461167c565b949350505050565b60006080820190506116d760008301876114c8565b6116e460208301866114c8565b6116f1604083018561167c565b6116fe6060830184611544565b95945050505050565b600060608201905061171c60008301866114c8565b611729602083018561167c565b611736604083018461167c565b949350505050565b6000602082019050818103600083015261175881846114d7565b905092915050565b6000602082019050818103600083015261177981611553565b9050919050565b6000602082019050818103600083015261179981611576565b9050919050565b600060208201905081810360008301526117b981611599565b9050919050565b600060208201905081810360008301526117d9816115bc565b9050919050565b60006020820190506117f5600083018461167c565b92915050565b6000819050602082019050919050565b600081519050919050565b6000602082019050919050565b600082825260208201905092915050565b600082825260208201905092915050565b60006118508261191f565b915061185b8361191f565b9250827fffffffffffffffffffffffffffffffffffffffffffffffffffffffffffffffff038211156118905761188f611972565b5b828201905092915050565b60006118a68261191f565b91506118b18361191f565b9250828210156118c4576118c3611972565b5b828203905092915050565b60006118da826118ff565b9050919050565b60006118ec826118ff565b9050919050565b60008115159050919050565b600073ffffffffffffffffffffffffffffffffffffffff82169050919050565b6000819050919050565b60006119348261191f565b91507fffffffffffffffffffffffffffffffffffffffffffffffffffffffffffffffff82141561196757611966611972565b5b600182019050919050565b7f4e487b7100000000000000000000000000000000000000000000000000000000600052601160045260246000fd5b7f506c65617365207375626d6974207468652061736b696e67207072696365206960008201527f6e206f7264657220746f20636f6d706c65746520707572636861736500000000602082015250565b7f5072696365206d7573742062652061626f7665207a65726f0000000000000000600082015250565b7f5072696365206d75737420626520657175616c20746f206c697374696e67207060008201527f7269636500000000000000000000000000000000000000000000000000000000602082015250565b7f5265656e7472616e637947756172643a207265656e7472616e742063616c6c00600082015250565b611a9a816118cf565b8114611aa557600080fd5b50565b611ab18161191f565b8114611abc57600080fd5b5056fea2646970667358221220752ccd606c6badef6933caf3f837bfd2b80259d07c338a371e76ebc74763166764736f6c63430008040033",
  "immutableReferences": {},
  "source": "//SPDX-License-Identifier: MIT\npragma solidity ^0.8.0;\n\nimport \"@openzeppelin/contracts/utils/Counters.sol\";\nimport \"@openzeppelin/contracts/token/ERC721/ERC721.sol\";\n//prevents re-entrancy attacks\nimport \"@openzeppelin/contracts/security/ReentrancyGuard.sol\";\n\ncontract NFTMarket is ReentrancyGuard {\n    using Counters for Counters.Counter;\n    Counters.Counter private _itemIds; //total number of items ever created\n    Counters.Counter private _itemsSold; //total number of items sold\n\n    address payable owner; //owner of the smart contract\n    //people have to pay to puy their NFT on this marketplace\n    uint256 listingPrice = 0.025 ether;\n\n    constructor() {\n        owner = payable(msg.sender);\n    }\n\n    struct MarketItem {\n        uint256 itemId;\n        address nftContract;\n        uint256 tokenId;\n        address payable seller; //person selling the nft\n        address payable owner; //owner of the nft\n        uint256 price;\n        bool sold;\n    }\n\n    //a way to access values of the MarketItem struct above by passing an integer ID\n    mapping(uint256 => MarketItem) private marketItems;\n\n    //log message (when Item is sold)\n    event MarketItemCreated(\n        uint256 indexed itemId,\n        address indexed nftContract,\n        uint256 indexed tokenId,\n        address seller,\n        address owner,\n        uint256 price,\n        bool sold\n    );\n\n    event MarketItemSold(address nftContract, uint256 itemId, uint256 price);\n\n    /// @notice function to get listingprice\n    function getListingPrice() public view returns (uint256) {\n        return listingPrice;\n    }\n\n    function setListingPrice(uint256 _price) public returns (uint256) {\n        if (msg.sender == address(this)) {\n            listingPrice = _price;\n        }\n        return listingPrice;\n    }\n\n    /// @notice function to create market item\n    function addMarketItem(\n        address nftContract,\n        uint256 tokenId,\n        uint256 price\n    ) public payable nonReentrant {\n        require(price > 0, \"Price must be above zero\");\n        require(\n            msg.value == listingPrice,\n            \"Price must be equal to listing price\"\n        );\n\n        _itemIds.increment(); //add 1 to the total number of items ever created\n        uint256 itemId = _itemIds.current();\n\n        marketItems[itemId] = MarketItem(\n            itemId,\n            nftContract,\n            tokenId,\n            payable(msg.sender), //address of the seller putting the nft up for sale\n            payable(address(0)), //no owner yet (set owner to empty address)\n            price,\n            false\n        );\n\n        //transfer ownership of the nft to the contract itself\n        IERC721(nftContract).transferFrom(msg.sender, address(this), tokenId);\n\n        //log this transaction\n        emit MarketItemCreated(\n            itemId,\n            nftContract,\n            tokenId,\n            msg.sender,\n            address(0),\n            price,\n            false\n        );\n    }\n\n    /// @notice function to create a sale\n    function makeMarketSale(address nftContract, uint256 itemId)\n        public\n        payable\n        nonReentrant\n    {\n        uint256 price = marketItems[itemId].price;\n        uint256 tokenId = marketItems[itemId].tokenId;\n\n        require(\n            msg.value == price,\n            \"Please submit the asking price in order to complete purchase\"\n        );\n\n        //pay the seller the amount\n        marketItems[itemId].seller.transfer(msg.value);\n\n        //transfer ownership of the nft from the contract itself to the buyer\n        IERC721(nftContract).transferFrom(address(this), msg.sender, tokenId);\n\n        marketItems[itemId].owner = payable(msg.sender); //mark buyer as new owner\n        marketItems[itemId].sold = true; //mark that it has been sold\n        _itemsSold.increment(); //increment the total number of Items sold by 1\n        payable(owner).transfer(listingPrice); //pay owner of contract the listing price\n\n        emit MarketItemSold(nftContract, itemId, price);\n    }\n\n    /// @notice total number of items unsold on our platform\n    function fetchMarketItems() public view returns (MarketItem[] memory) {\n        uint256 itemCount = _itemIds.current(); //total number of items ever created\n        //total number of items that are unsold = total items ever created - total items ever sold\n        uint256 unsoldItemCount = _itemIds.current() - _itemsSold.current();\n        uint256 currentIndex = 0;\n\n        MarketItem[] memory items = new MarketItem[](unsoldItemCount);\n\n        //loop through all items ever created\n        for (uint256 i = 0; i < itemCount; i++) {\n            //get only unsold item\n            //check if the item has not been sold\n            //by checking if the owner field is empty\n            if (marketItems[i + 1].owner == address(0)) {\n                //yes, this item has never been sold\n                uint256 currentId = marketItems[i + 1].itemId;\n                MarketItem storage currentItem = marketItems[currentId];\n                items[currentIndex] = currentItem;\n                currentIndex += 1;\n            }\n        }\n        return items; //return array of all unsold items\n    }\n\n    /// @notice fetch list of NFTS owned/bought by this user\n    function fetchUserNFTs() public view returns (MarketItem[] memory) {\n        //get total number of items ever created\n        uint256 totalItemCount = _itemIds.current();\n\n        uint256 itemCount = 0;\n        uint256 currentIndex = 0;\n\n        for (uint256 i = 0; i < totalItemCount; i++) {\n            //get only the items that this user has bought/is the owner\n            if (marketItems[i + 1].owner == msg.sender) {\n                itemCount += 1; //total length\n            }\n        }\n\n        MarketItem[] memory items = new MarketItem[](itemCount);\n        for (uint256 i = 0; i < totalItemCount; i++) {\n            if (marketItems[i + 1].owner == msg.sender) {\n                uint256 currentId = marketItems[i + 1].itemId;\n                MarketItem storage currentItem = marketItems[currentId];\n                items[currentIndex] = currentItem;\n                currentIndex += 1;\n            }\n        }\n        return items;\n    }\n\n    /// @notice fetch list of NFTS owned/bought by this user\n    function fetchItemsCreated() public view returns (MarketItem[] memory) {\n        //get total number of items ever created\n        uint256 totalItemCount = _itemIds.current();\n\n        uint256 itemCount = 0;\n        uint256 currentIndex = 0;\n\n        for (uint256 i = 0; i < totalItemCount; i++) {\n            //get only the items that this user has bought/is the owner\n            if (marketItems[i + 1].seller == msg.sender) {\n                itemCount += 1; //total length\n            }\n        }\n\n        MarketItem[] memory items = new MarketItem[](itemCount);\n        for (uint256 i = 0; i < totalItemCount; i++) {\n            if (marketItems[i + 1].seller == msg.sender) {\n                uint256 currentId = marketItems[i + 1].itemId;\n                MarketItem storage currentItem = marketItems[currentId];\n                items[currentIndex] = currentItem;\n                currentIndex += 1;\n            }\n        }\n        return items;\n    }\n    \n    function getContractDate() public view returns(uint) {\n        uint time = block.timestamp;\n        return time;\n    }\n}\n",
  "sourcePath": "/Users/aubs/WORK/MORALIS/africa_art_nft/marketplace/truffleBin/contracts/NFTMarket.sol",
  "compiler": {
    "name": "solc",
    "version": "0.8.4+commit.c7e474f2.Emscripten.clang"
  },
  "schemaVersion": "3.4.3",
  "updatedAt": "2022-03-10T15:46:46.111Z",
  "networkType": "ethereum",
  "devdoc": {
    "kind": "dev",
    "methods": {},
    "version": 1
  },
  "userdoc": {
    "kind": "user",
    "methods": {
      "addMarketItem(address,uint256,uint256)": {
        "notice": "function to create market item"
      },
      "fetchItemsCreated()": {
        "notice": "fetch list of NFTS owned/bought by this user"
      },
      "fetchMarketItems()": {
        "notice": "total number of items unsold on our platform"
      },
      "fetchUserNFTs()": {
        "notice": "fetch list of NFTS owned/bought by this user"
      },
      "getListingPrice()": {
        "notice": "function to get listingprice"
      },
      "makeMarketSale(address,uint256)": {
        "notice": "function to create a sale"
      }
    },
    "version": 1
  }
}