{
  "_format": "hh-sol-artifact-1",
  "contractName": "NFTMarket",
  "sourceName": "contracts/NFTMarket.sol",
  "abi": [
    {
      "inputs": [],
      "stateMutability": "nonpayable",
      "type": "constructor"
    },
    {
      "anonymous": false,
      "inputs": [
        {
          "indexed": true,
          "internalType": "uint256",
          "name": "itemId",
          "type": "uint256"
        },
        {
          "indexed": true,
          "internalType": "address",
          "name": "nftContract",
          "type": "address"
        },
        {
          "indexed": true,
          "internalType": "uint256",
          "name": "tokenId",
          "type": "uint256"
        },
        {
          "indexed": false,
          "internalType": "address",
          "name": "seller",
          "type": "address"
        },
        {
          "indexed": false,
          "internalType": "address",
          "name": "owner",
          "type": "address"
        },
        {
          "indexed": false,
          "internalType": "uint256",
          "name": "price",
          "type": "uint256"
        },
        {
          "indexed": false,
          "internalType": "bool",
          "name": "sold",
          "type": "bool"
        }
      ],
      "name": "MarketItemCreated",
      "type": "event"
    },
    {
      "anonymous": false,
      "inputs": [
        {
          "indexed": false,
          "internalType": "address",
          "name": "nftContract",
          "type": "address"
        },
        {
          "indexed": false,
          "internalType": "uint256",
          "name": "itemId",
          "type": "uint256"
        },
        {
          "indexed": false,
          "internalType": "uint256",
          "name": "price",
          "type": "uint256"
        }
      ],
      "name": "MarketItemSold",
      "type": "event"
    },
    {
      "inputs": [
        {
          "internalType": "address",
          "name": "nftContract",
          "type": "address"
        },
        {
          "internalType": "uint256",
          "name": "tokenId",
          "type": "uint256"
        },
        {
          "internalType": "uint256",
          "name": "price",
          "type": "uint256"
        }
      ],
      "name": "addMarketItem",
      "outputs": [],
      "stateMutability": "payable",
      "type": "function"
    },
    {
      "inputs": [],
      "name": "contractAddress",
      "outputs": [
        {
          "internalType": "address",
          "name": "",
          "type": "address"
        }
      ],
      "stateMutability": "view",
      "type": "function"
    },
    {
      "inputs": [],
      "name": "fetchItemsCreated",
      "outputs": [
        {
          "components": [
            {
              "internalType": "uint256",
              "name": "itemId",
              "type": "uint256"
            },
            {
              "internalType": "address",
              "name": "nftContract",
              "type": "address"
            },
            {
              "internalType": "uint256",
              "name": "tokenId",
              "type": "uint256"
            },
            {
              "internalType": "address payable",
              "name": "seller",
              "type": "address"
            },
            {
              "internalType": "address payable",
              "name": "owner",
              "type": "address"
            },
            {
              "internalType": "uint256",
              "name": "price",
              "type": "uint256"
            },
            {
              "internalType": "bool",
              "name": "sold",
              "type": "bool"
            }
          ],
          "internalType": "struct NFTMarket.MarketItem[]",
          "name": "",
          "type": "tuple[]"
        }
      ],
      "stateMutability": "view",
      "type": "function"
    },
    {
      "inputs": [],
      "name": "fetchMarketItems",
      "outputs": [
        {
          "components": [
            {
              "internalType": "uint256",
              "name": "itemId",
              "type": "uint256"
            },
            {
              "internalType": "address",
              "name": "nftContract",
              "type": "address"
            },
            {
              "internalType": "uint256",
              "name": "tokenId",
              "type": "uint256"
            },
            {
              "internalType": "address payable",
              "name": "seller",
              "type": "address"
            },
            {
              "internalType": "address payable",
              "name": "owner",
              "type": "address"
            },
            {
              "internalType": "uint256",
              "name": "price",
              "type": "uint256"
            },
            {
              "internalType": "bool",
              "name": "sold",
              "type": "bool"
            }
          ],
          "internalType": "struct NFTMarket.MarketItem[]",
          "name": "",
          "type": "tuple[]"
        }
      ],
      "stateMutability": "view",
      "type": "function"
    },
    {
      "inputs": [],
      "name": "fetchUserNFTs",
      "outputs": [
        {
          "components": [
            {
              "internalType": "uint256",
              "name": "itemId",
              "type": "uint256"
            },
            {
              "internalType": "address",
              "name": "nftContract",
              "type": "address"
            },
            {
              "internalType": "uint256",
              "name": "tokenId",
              "type": "uint256"
            },
            {
              "internalType": "address payable",
              "name": "seller",
              "type": "address"
            },
            {
              "internalType": "address payable",
              "name": "owner",
              "type": "address"
            },
            {
              "internalType": "uint256",
              "name": "price",
              "type": "uint256"
            },
            {
              "internalType": "bool",
              "name": "sold",
              "type": "bool"
            }
          ],
          "internalType": "struct NFTMarket.MarketItem[]",
          "name": "",
          "type": "tuple[]"
        }
      ],
      "stateMutability": "view",
      "type": "function"
    },
    {
      "inputs": [],
      "name": "getContractAddress",
      "outputs": [
        {
          "internalType": "address",
          "name": "",
          "type": "address"
        }
      ],
      "stateMutability": "view",
      "type": "function"
    },
    {
      "inputs": [],
      "name": "getContractDate",
      "outputs": [
        {
          "internalType": "uint256",
          "name": "",
          "type": "uint256"
        }
      ],
      "stateMutability": "view",
      "type": "function"
    },
    {
      "inputs": [],
      "name": "getListingPrice",
      "outputs": [
        {
          "internalType": "uint256",
          "name": "",
          "type": "uint256"
        }
      ],
      "stateMutability": "view",
      "type": "function"
    },
    {
      "inputs": [
        {
          "internalType": "address",
          "name": "nftContract",
          "type": "address"
        },
        {
          "internalType": "uint256",
          "name": "itemId",
          "type": "uint256"
        }
      ],
      "name": "makeMarketSale",
      "outputs": [],
      "stateMutability": "payable",
      "type": "function"
    },
    {
      "inputs": [],
      "name": "owner",
      "outputs": [
        {
          "internalType": "address payable",
          "name": "",
          "type": "address"
        }
      ],
      "stateMutability": "view",
      "type": "function"
    },
    {
      "inputs": [
        {
          "internalType": "uint256",
          "name": "_price",
          "type": "uint256"
        }
      ],
      "name": "setListingPrice",
      "outputs": [
        {
          "internalType": "uint256",
          "name": "",
          "type": "uint256"
        }
      ],
      "stateMutability": "nonpayable",
      "type": "function"
    }
  ],
  "bytecode": "0x60806040526608fd05874820006005553480156200001c57600080fd5b50600160008190555033600360006101000a81548173ffffffffffffffffffffffffffffffffffffffff021916908373ffffffffffffffffffffffffffffffffffffffff16021790555030600460006101000a81548173ffffffffffffffffffffffffffffffffffffffff021916908373ffffffffffffffffffffffffffffffffffffffff160217905550620000d66040518060600160405280602c81526020016200239b602c91396200011460201b620015ae1760201c565b6200010e600460009054906101000a900473ffffffffffffffffffffffffffffffffffffffff16620001b760201b620016471760201c565b620003ad565b620001b4816040516024016200012b9190620002f2565b6040516020818303038152906040527f41304fac000000000000000000000000000000000000000000000000000000007bffffffffffffffffffffffffffffffffffffffffffffffffffffffff19166020820180517bffffffffffffffffffffffffffffffffffffffffffffffffffffffff83818316178352505050506200025a60201b60201c565b50565b6200025781604051602401620001ce9190620002d5565b6040516020818303038152906040527f2c2ecbc2000000000000000000000000000000000000000000000000000000007bffffffffffffffffffffffffffffffffffffffffffffffffffffffff19166020820180517bffffffffffffffffffffffffffffffffffffffffffffffffffffffff83818316178352505050506200025a60201b60201c565b50565b60008151905060006a636f6e736f6c652e6c6f679050602083016000808483855afa5050505050565b6200028e8162000332565b82525050565b6000620002a18262000316565b620002ad818562000321565b9350620002bf81856020860162000366565b620002ca816200039c565b840191505092915050565b6000602082019050620002ec600083018462000283565b92915050565b600060208201905081810360008301526200030e818462000294565b905092915050565b600081519050919050565b600082825260208201905092915050565b60006200033f8262000346565b9050919050565b600073ffffffffffffffffffffffffffffffffffffffff82169050919050565b60005b838110156200038657808201518184015260208101905062000369565b8381111562000396576000848401525b50505050565b6000601f19601f8301169050919050565b611fde80620003bd6000396000f3fe60806040526004361061009c5760003560e01c80637c726b69116100645780637c726b69146101695780638da5cb5b146101a6578063b77f62c4146101d1578063ef76280f146101ed578063f064c32e14610218578063f6b4dfb4146102435761009c565b80630f08efe0146100a157806312e85585146100cc5780633138fc51146100f757806332a2c5d014610113578063554f4fc31461013e575b600080fd5b3480156100ad57600080fd5b506100b661026e565b6040516100c39190611bb6565b60405180910390f35b3480156100d857600080fd5b506100e161059a565b6040516100ee9190611c7a565b60405180910390f35b610111600480360381019061010c91906117d8565b6105a4565b005b34801561011f57600080fd5b506101286108d6565b6040516101359190611acd565b60405180910390f35b34801561014a57600080fd5b506101536108de565b6040516101609190611c7a565b60405180910390f35b34801561017557600080fd5b50610190600480360381019061018b9190611863565b6108eb565b60405161019d9190611c7a565b60405180910390f35b3480156101b257600080fd5b506101bb610933565b6040516101c89190611ae8565b60405180910390f35b6101eb60048036038101906101e69190611814565b610959565b005b3480156101f957600080fd5b50610202610e28565b60405161020f9190611bb6565b60405180910390f35b34801561022457600080fd5b5061022d6111d8565b60405161023a9190611bb6565b60405180910390f35b34801561024f57600080fd5b50610258611588565b6040516102659190611acd565b60405180910390f35b6060600061027c60016116e0565b9050600061028a60026116e0565b61029460016116e0565b61029e9190611d40565b90506000808267ffffffffffffffff8111156102e3577f4e487b7100000000000000000000000000000000000000000000000000000000600052604160045260246000fd5b60405190808252806020026020018201604052801561031c57816020015b61030961172d565b8152602001906001900390816103015790505b50905060005b8481101561058f57600073ffffffffffffffffffffffffffffffffffffffff16600660006001846103539190611cea565b815260200190815260200160002060040160009054906101000a900473ffffffffffffffffffffffffffffffffffffffff1673ffffffffffffffffffffffffffffffffffffffff16141561057c576000600660006001846103b49190611cea565b81526020019081526020016000206000015490506000600660008381526020019081526020016000209050806040518060e0016040529081600082015481526020016001820160009054906101000a900473ffffffffffffffffffffffffffffffffffffffff1673ffffffffffffffffffffffffffffffffffffffff1673ffffffffffffffffffffffffffffffffffffffff168152602001600282015481526020016003820160009054906101000a900473ffffffffffffffffffffffffffffffffffffffff1673ffffffffffffffffffffffffffffffffffffffff1673ffffffffffffffffffffffffffffffffffffffff1681526020016004820160009054906101000a900473ffffffffffffffffffffffffffffffffffffffff1673ffffffffffffffffffffffffffffffffffffffff1673ffffffffffffffffffffffffffffffffffffffff168152602001600582015481526020016006820160009054906101000a900460ff16151515158152505084868151811061055f577f4e487b7100000000000000000000000000000000000000000000000000000000600052603260045260246000fd5b60200260200101819052506001856105779190611cea565b945050505b808061058790611e01565b915050610322565b508094505050505090565b6000600554905090565b600260005414156105ea576040517f08c379a00000000000000000000000000000000000000000000000000000000081526004016105e190611c5a565b60405180910390fd5b600260008190555060006006600083815260200190815260200160002060050154905060006006600084815260200190815260200160002060020154905081341461066a576040517f08c379a000000000000000000000000000000000000000000000000000000000815260040161066190611bfa565b60405180910390fd5b6006600084815260200190815260200160002060030160009054906101000a900473ffffffffffffffffffffffffffffffffffffffff1673ffffffffffffffffffffffffffffffffffffffff166108fc349081150290604051600060405180830381858888f193505050501580156106e6573d6000803e3d6000fd5b508373ffffffffffffffffffffffffffffffffffffffff166323b872dd3033846040518463ffffffff1660e01b815260040161072493929190611b03565b600060405180830381600087803b15801561073e57600080fd5b505af1158015610752573d6000803e3d6000fd5b50505050336006600085815260200190815260200160002060040160006101000a81548173ffffffffffffffffffffffffffffffffffffffff021916908373ffffffffffffffffffffffffffffffffffffffff16021790555060016006600085815260200190815260200160002060060160006101000a81548160ff0219169083151502179055506107e460026116ee565b600360009054906101000a900473ffffffffffffffffffffffffffffffffffffffff1673ffffffffffffffffffffffffffffffffffffffff166108fc6005549081150290604051600060405180830381858888f1935050505015801561084e573d6000803e3d6000fd5b507f24b313bbf3065ea6fc13951b8d4bf548b3c67ed60eaaeeaac5e5b07352d900b184848460405161088293929190611b7f565b60405180910390a16108c86040518060400160405280601081526020017f4d61726b6574204974656d20736f6c64000000000000000000000000000000008152506115ae565b505060016000819055505050565b600030905090565b6000804290508091505090565b60003073ffffffffffffffffffffffffffffffffffffffff163373ffffffffffffffffffffffffffffffffffffffff16141561092957816005819055505b6005549050919050565b600360009054906101000a900473ffffffffffffffffffffffffffffffffffffffff1681565b6002600054141561099f576040517f08c379a000000000000000000000000000000000000000000000000000000000815260040161099690611c5a565b60405180910390fd5b6002600081905550600081116109ea576040517f08c379a00000000000000000000000000000000000000000000000000000000081526004016109e190611c1a565b60405180910390fd5b6005548114610a2e576040517f08c379a0000000000000000000000000000000000000000000000000000000008152600401610a2590611c3a565b60405180910390fd5b610a3860016116ee565b6000610a4460016116e0565b90506040518060e001604052808281526020018573ffffffffffffffffffffffffffffffffffffffff1681526020018481526020013373ffffffffffffffffffffffffffffffffffffffff168152602001600073ffffffffffffffffffffffffffffffffffffffff16815260200183815260200160001515815250600660008381526020019081526020016000206000820151816000015560208201518160010160006101000a81548173ffffffffffffffffffffffffffffffffffffffff021916908373ffffffffffffffffffffffffffffffffffffffff1602179055506040820151816002015560608201518160030160006101000a81548173ffffffffffffffffffffffffffffffffffffffff021916908373ffffffffffffffffffffffffffffffffffffffff16021790555060808201518160040160006101000a81548173ffffffffffffffffffffffffffffffffffffffff021916908373ffffffffffffffffffffffffffffffffffffffff16021790555060a0820151816005015560c08201518160060160006101000a81548160ff0219169083151502179055509050506000600660008381526020019081526020016000206040518060e0016040529081600082015481526020016001820160009054906101000a900473ffffffffffffffffffffffffffffffffffffffff1673ffffffffffffffffffffffffffffffffffffffff1673ffffffffffffffffffffffffffffffffffffffff168152602001600282015481526020016003820160009054906101000a900473ffffffffffffffffffffffffffffffffffffffff1673ffffffffffffffffffffffffffffffffffffffff1673ffffffffffffffffffffffffffffffffffffffff1681526020016004820160009054906101000a900473ffffffffffffffffffffffffffffffffffffffff1673ffffffffffffffffffffffffffffffffffffffff1673ffffffffffffffffffffffffffffffffffffffff168152602001600582015481526020016006820160009054906101000a900460ff1615151515815250509050610d836040518060400160405280601481526020017f4d61726b65744974656d206275696c74202e2e2e0000000000000000000000008152506115ae565b838573ffffffffffffffffffffffffffffffffffffffff16837f045dfa01dcba2b36aba1d3dc4a874f4b0c5d2fbeb8d2c4b34a7d88c8d8f929d1336000886000604051610dd39493929190611b3a565b60405180910390a4610e196040518060400160405280601381526020017f4d61726b6574204974656d2063726561746564000000000000000000000000008152506115ae565b50506001600081905550505050565b60606000610e3660016116e0565b905060008060005b83811015610edf573373ffffffffffffffffffffffffffffffffffffffff1660066000600184610e6e9190611cea565b815260200190815260200160002060040160009054906101000a900473ffffffffffffffffffffffffffffffffffffffff1673ffffffffffffffffffffffffffffffffffffffff161415610ecc57600183610ec99190611cea565b92505b8080610ed790611e01565b915050610e3e565b5060008267ffffffffffffffff811115610f22577f4e487b7100000000000000000000000000000000000000000000000000000000600052604160045260246000fd5b604051908082528060200260200182016040528015610f5b57816020015b610f4861172d565b815260200190600190039081610f405790505b50905060005b848110156111cd573373ffffffffffffffffffffffffffffffffffffffff1660066000600184610f919190611cea565b815260200190815260200160002060040160009054906101000a900473ffffffffffffffffffffffffffffffffffffffff1673ffffffffffffffffffffffffffffffffffffffff1614156111ba57600060066000600184610ff29190611cea565b81526020019081526020016000206000015490506000600660008381526020019081526020016000209050806040518060e0016040529081600082015481526020016001820160009054906101000a900473ffffffffffffffffffffffffffffffffffffffff1673ffffffffffffffffffffffffffffffffffffffff1673ffffffffffffffffffffffffffffffffffffffff168152602001600282015481526020016003820160009054906101000a900473ffffffffffffffffffffffffffffffffffffffff1673ffffffffffffffffffffffffffffffffffffffff1673ffffffffffffffffffffffffffffffffffffffff1681526020016004820160009054906101000a900473ffffffffffffffffffffffffffffffffffffffff1673ffffffffffffffffffffffffffffffffffffffff1673ffffffffffffffffffffffffffffffffffffffff168152602001600582015481526020016006820160009054906101000a900460ff16151515158152505084868151811061119d577f4e487b7100000000000000000000000000000000000000000000000000000000600052603260045260246000fd5b60200260200101819052506001856111b59190611cea565b945050505b80806111c590611e01565b915050610f61565b508094505050505090565b606060006111e660016116e0565b905060008060005b8381101561128f573373ffffffffffffffffffffffffffffffffffffffff166006600060018461121e9190611cea565b815260200190815260200160002060030160009054906101000a900473ffffffffffffffffffffffffffffffffffffffff1673ffffffffffffffffffffffffffffffffffffffff16141561127c576001836112799190611cea565b92505b808061128790611e01565b9150506111ee565b5060008267ffffffffffffffff8111156112d2577f4e487b7100000000000000000000000000000000000000000000000000000000600052604160045260246000fd5b60405190808252806020026020018201604052801561130b57816020015b6112f861172d565b8152602001906001900390816112f05790505b50905060005b8481101561157d573373ffffffffffffffffffffffffffffffffffffffff16600660006001846113419190611cea565b815260200190815260200160002060030160009054906101000a900473ffffffffffffffffffffffffffffffffffffffff1673ffffffffffffffffffffffffffffffffffffffff16141561156a576000600660006001846113a29190611cea565b81526020019081526020016000206000015490506000600660008381526020019081526020016000209050806040518060e0016040529081600082015481526020016001820160009054906101000a900473ffffffffffffffffffffffffffffffffffffffff1673ffffffffffffffffffffffffffffffffffffffff1673ffffffffffffffffffffffffffffffffffffffff168152602001600282015481526020016003820160009054906101000a900473ffffffffffffffffffffffffffffffffffffffff1673ffffffffffffffffffffffffffffffffffffffff1673ffffffffffffffffffffffffffffffffffffffff1681526020016004820160009054906101000a900473ffffffffffffffffffffffffffffffffffffffff1673ffffffffffffffffffffffffffffffffffffffff1673ffffffffffffffffffffffffffffffffffffffff168152602001600582015481526020016006820160009054906101000a900460ff16151515158152505084868151811061154d577f4e487b7100000000000000000000000000000000000000000000000000000000600052603260045260246000fd5b60200260200101819052506001856115659190611cea565b945050505b808061157590611e01565b915050611311565b508094505050505090565b600460009054906101000a900473ffffffffffffffffffffffffffffffffffffffff1681565b611644816040516024016115c29190611bd8565b6040516020818303038152906040527f41304fac000000000000000000000000000000000000000000000000000000007bffffffffffffffffffffffffffffffffffffffffffffffffffffffff19166020820180517bffffffffffffffffffffffffffffffffffffffffffffffffffffffff8381831617835250505050611704565b50565b6116dd8160405160240161165b9190611acd565b6040516020818303038152906040527f2c2ecbc2000000000000000000000000000000000000000000000000000000007bffffffffffffffffffffffffffffffffffffffffffffffffffffffff19166020820180517bffffffffffffffffffffffffffffffffffffffffffffffffffffffff8381831617835250505050611704565b50565b600081600001549050919050565b6001816000016000828254019250508190555050565b60008151905060006a636f6e736f6c652e6c6f679050602083016000808483855afa5050505050565b6040518060e0016040528060008152602001600073ffffffffffffffffffffffffffffffffffffffff16815260200160008152602001600073ffffffffffffffffffffffffffffffffffffffff168152602001600073ffffffffffffffffffffffffffffffffffffffff168152602001600081526020016000151581525090565b6000813590506117bd81611f7a565b92915050565b6000813590506117d281611f91565b92915050565b600080604083850312156117eb57600080fd5b60006117f9858286016117ae565b925050602061180a858286016117c3565b9150509250929050565b60008060006060848603121561182957600080fd5b6000611837868287016117ae565b9350506020611848868287016117c3565b9250506040611859868287016117c3565b9150509250925092565b60006020828403121561187557600080fd5b6000611883848285016117c3565b91505092915050565b60006118988383611a21565b60e08301905092915050565b6118ad81611d86565b82525050565b6118bc81611d86565b82525050565b6118cb81611d74565b82525050565b6118da81611d74565b82525050565b60006118eb82611ca5565b6118f58185611cc8565b935061190083611c95565b8060005b83811015611931578151611918888261188c565b975061192383611cbb565b925050600181019050611904565b5085935050505092915050565b61194781611d98565b82525050565b61195681611d98565b82525050565b600061196782611cb0565b6119718185611cd9565b9350611981818560208601611dce565b61198a81611e79565b840191505092915050565b60006119a2603c83611cd9565b91506119ad82611e8a565b604082019050919050565b60006119c5601883611cd9565b91506119d082611ed9565b602082019050919050565b60006119e8602483611cd9565b91506119f382611f02565b604082019050919050565b6000611a0b601f83611cd9565b9150611a1682611f51565b602082019050919050565b60e082016000820151611a376000850182611aaf565b506020820151611a4a60208501826118c2565b506040820151611a5d6040850182611aaf565b506060820151611a7060608501826118a4565b506080820151611a8360808501826118a4565b5060a0820151611a9660a0850182611aaf565b5060c0820151611aa960c085018261193e565b50505050565b611ab881611dc4565b82525050565b611ac781611dc4565b82525050565b6000602082019050611ae260008301846118d1565b92915050565b6000602082019050611afd60008301846118b3565b92915050565b6000606082019050611b1860008301866118d1565b611b2560208301856118d1565b611b326040830184611abe565b949350505050565b6000608082019050611b4f60008301876118d1565b611b5c60208301866118d1565b611b696040830185611abe565b611b76606083018461194d565b95945050505050565b6000606082019050611b9460008301866118d1565b611ba16020830185611abe565b611bae6040830184611abe565b949350505050565b60006020820190508181036000830152611bd081846118e0565b905092915050565b60006020820190508181036000830152611bf2818461195c565b905092915050565b60006020820190508181036000830152611c1381611995565b9050919050565b60006020820190508181036000830152611c33816119b8565b9050919050565b60006020820190508181036000830152611c53816119db565b9050919050565b60006020820190508181036000830152611c73816119fe565b9050919050565b6000602082019050611c8f6000830184611abe565b92915050565b6000819050602082019050919050565b600081519050919050565b600081519050919050565b6000602082019050919050565b600082825260208201905092915050565b600082825260208201905092915050565b6000611cf582611dc4565b9150611d0083611dc4565b9250827fffffffffffffffffffffffffffffffffffffffffffffffffffffffffffffffff03821115611d3557611d34611e4a565b5b828201905092915050565b6000611d4b82611dc4565b9150611d5683611dc4565b925082821015611d6957611d68611e4a565b5b828203905092915050565b6000611d7f82611da4565b9050919050565b6000611d9182611da4565b9050919050565b60008115159050919050565b600073ffffffffffffffffffffffffffffffffffffffff82169050919050565b6000819050919050565b60005b83811015611dec578082015181840152602081019050611dd1565b83811115611dfb576000848401525b50505050565b6000611e0c82611dc4565b91507fffffffffffffffffffffffffffffffffffffffffffffffffffffffffffffffff821415611e3f57611e3e611e4a565b5b600182019050919050565b7f4e487b7100000000000000000000000000000000000000000000000000000000600052601160045260246000fd5b6000601f19601f8301169050919050565b7f506c65617365207375626d6974207468652061736b696e67207072696365206960008201527f6e206f7264657220746f20636f6d706c65746520707572636861736500000000602082015250565b7f5072696365206d7573742062652061626f7665207a65726f0000000000000000600082015250565b7f5072696365206d75737420626520657175616c20746f206c697374696e67207060008201527f7269636500000000000000000000000000000000000000000000000000000000602082015250565b7f5265656e7472616e637947756172643a207265656e7472616e742063616c6c00600082015250565b611f8381611d74565b8114611f8e57600080fd5b50565b611f9a81611dc4565b8114611fa557600080fd5b5056fea2646970667358221220e8ed10d063d5e692f13da99df83dd8b15222a5775412d09b71bc23ebc0ba606964736f6c634300080400334e46544d61726b657420636f6e7374727563746f723a20636f6e747261637420616464726573732069733a20",
  "linkReferences": {},
  "deployedLinkReferences": {}
}